{
  "_format": "hh-sol-artifact-1",
  "contractName": "TaskDAGRegistry",
  "sourceName": "contracts/TaskDAGRegistry.sol",
  "abi": [
    {
      "inputs": [
        {
          "internalType": "address",
          "name": "_bidEngine",
          "type": "address"
        },
        {
          "internalType": "address",
          "name": "_meshEscrow",
          "type": "address"
        }
      ],
      "stateMutability": "nonpayable",
      "type": "constructor"
    },
    {
      "anonymous": false,
      "inputs": [
        {
          "indexed": true,
          "internalType": "bytes32",
          "name": "dagRoot",
          "type": "bytes32"
        }
      ],
      "name": "DAGCompleted",
      "type": "event"
    },
    {
      "anonymous": false,
      "inputs": [
        {
          "indexed": true,
          "internalType": "bytes32",
          "name": "dagRoot",
          "type": "bytes32"
        },
        {
          "indexed": false,
          "internalType": "address",
          "name": "requester",
          "type": "address"
        },
        {
          "indexed": false,
          "internalType": "uint256",
          "name": "nodeCount",
          "type": "uint256"
        },
        {
          "indexed": false,
          "internalType": "uint256",
          "name": "budget",
          "type": "uint256"
        }
      ],
      "name": "DAGSubmitted",
      "type": "event"
    },
    {
      "anonymous": false,
      "inputs": [
        {
          "indexed": true,
          "internalType": "bytes32",
          "name": "taskId",
          "type": "bytes32"
        },
        {
          "indexed": false,
          "internalType": "enum TaskDAGRegistry.NodeStatus",
          "name": "newStatus",
          "type": "uint8"
        },
        {
          "indexed": false,
          "internalType": "address",
          "name": "agent",
          "type": "address"
        }
      ],
      "name": "NodeStatusChanged",
      "type": "event"
    },
    {
      "inputs": [],
      "name": "bidEngine",
      "outputs": [
        {
          "internalType": "address",
          "name": "",
          "type": "address"
        }
      ],
      "stateMutability": "view",
      "type": "function"
    },
    {
      "inputs": [
        {
          "internalType": "bytes32",
          "name": "",
          "type": "bytes32"
        },
        {
          "internalType": "uint256",
          "name": "",
          "type": "uint256"
        }
      ],
      "name": "dagNodes",
      "outputs": [
        {
          "internalType": "bytes32",
          "name": "",
          "type": "bytes32"
        }
      ],
      "stateMutability": "view",
      "type": "function"
    },
    {
      "inputs": [
        {
          "internalType": "bytes32",
          "name": "",
          "type": "bytes32"
        }
      ],
      "name": "dags",
      "outputs": [
        {
          "internalType": "bytes32",
          "name": "dagRoot",
          "type": "bytes32"
        },
        {
          "internalType": "address",
          "name": "requester",
          "type": "address"
        },
        {
          "internalType": "uint256",
          "name": "totalBudget",
          "type": "uint256"
        },
        {
          "internalType": "uint256",
          "name": "submittedAt",
          "type": "uint256"
        },
        {
          "internalType": "uint256",
          "name": "nodeCount",
          "type": "uint256"
        },
        {
          "internalType": "bool",
          "name": "complete",
          "type": "bool"
        }
      ],
      "stateMutability": "view",
      "type": "function"
    },
    {
      "inputs": [
        {
          "internalType": "bytes32",
          "name": "taskId",
          "type": "bytes32"
        }
      ],
      "name": "dependenciesMet",
      "outputs": [
        {
          "internalType": "bool",
          "name": "",
          "type": "bool"
        }
      ],
      "stateMutability": "view",
      "type": "function"
    },
    {
      "inputs": [
        {
          "internalType": "bytes32",
          "name": "dagRoot",
          "type": "bytes32"
        }
      ],
      "name": "getDAG",
      "outputs": [
        {
          "components": [
            {
              "internalType": "bytes32",
              "name": "dagRoot",
              "type": "bytes32"
            },
            {
              "internalType": "address",
              "name": "requester",
              "type": "address"
            },
            {
              "internalType": "uint256",
              "name": "totalBudget",
              "type": "uint256"
            },
            {
              "internalType": "uint256",
              "name": "submittedAt",
              "type": "uint256"
            },
            {
              "internalType": "uint256",
              "name": "nodeCount",
              "type": "uint256"
            },
            {
              "internalType": "bool",
              "name": "complete",
              "type": "bool"
            }
          ],
          "internalType": "struct TaskDAGRegistry.DAG",
          "name": "",
          "type": "tuple"
        }
      ],
      "stateMutability": "view",
      "type": "function"
    },
    {
      "inputs": [
        {
          "internalType": "bytes32",
          "name": "dagRoot",
          "type": "bytes32"
        }
      ],
      "name": "getDAGNodes",
      "outputs": [
        {
          "internalType": "bytes32[]",
          "name": "",
          "type": "bytes32[]"
        }
      ],
      "stateMutability": "view",
      "type": "function"
    },
    {
      "inputs": [
        {
          "internalType": "bytes32",
          "name": "taskId",
          "type": "bytes32"
        }
      ],
      "name": "getNode",
      "outputs": [
        {
          "components": [
            {
              "internalType": "bytes32",
              "name": "taskId",
              "type": "bytes32"
            },
            {
              "internalType": "bytes32",
              "name": "inputSchemaHash",
              "type": "bytes32"
            },
            {
              "internalType": "bytes32",
              "name": "outputSchemaHash",
              "type": "bytes32"
            },
            {
              "internalType": "bytes32",
              "name": "qualityRubricHash",
              "type": "bytes32"
            },
            {
              "internalType": "bytes32[]",
              "name": "dependsOn",
              "type": "bytes32[]"
            },
            {
              "internalType": "enum TaskDAGRegistry.NodeType",
              "name": "nodeType",
              "type": "uint8"
            },
            {
              "internalType": "uint256",
              "name": "maxBudget",
              "type": "uint256"
            },
            {
              "internalType": "uint256",
              "name": "timeoutBlocks",
              "type": "uint256"
            },
            {
              "internalType": "address",
              "name": "assignedAgent",
              "type": "address"
            },
            {
              "internalType": "enum TaskDAGRegistry.NodeStatus",
              "name": "status",
              "type": "uint8"
            },
            {
              "internalType": "uint256",
              "name": "assignedAt",
              "type": "uint256"
            },
            {
              "internalType": "uint256",
              "name": "completedAt",
              "type": "uint256"
            }
          ],
          "internalType": "struct TaskDAGRegistry.TaskNode",
          "name": "",
          "type": "tuple"
        }
      ],
      "stateMutability": "view",
      "type": "function"
    },
    {
      "inputs": [
        {
          "internalType": "bytes32",
          "name": "taskId",
          "type": "bytes32"
        }
      ],
      "name": "getNodeStatus",
      "outputs": [
        {
          "internalType": "enum TaskDAGRegistry.NodeStatus",
          "name": "",
          "type": "uint8"
        }
      ],
      "stateMutability": "view",
      "type": "function"
    },
    {
      "inputs": [
        {
          "internalType": "bytes32",
          "name": "taskId",
          "type": "bytes32"
        },
        {
          "internalType": "address",
          "name": "agent",
          "type": "address"
        }
      ],
      "name": "markNodeAssigned",
      "outputs": [],
      "stateMutability": "nonpayable",
      "type": "function"
    },
    {
      "inputs": [
        {
          "internalType": "bytes32",
          "name": "taskId",
          "type": "bytes32"
        }
      ],
      "name": "markNodeComplete",
      "outputs": [],
      "stateMutability": "nonpayable",
      "type": "function"
    },
    {
      "inputs": [
        {
          "internalType": "bytes32",
          "name": "taskId",
          "type": "bytes32"
        }
      ],
      "name": "markNodeFailed",
      "outputs": [],
      "stateMutability": "nonpayable",
      "type": "function"
    },
    {
      "inputs": [],
      "name": "meshEscrow",
      "outputs": [
        {
          "internalType": "address",
          "name": "",
          "type": "address"
        }
      ],
      "stateMutability": "view",
      "type": "function"
    },
    {
      "inputs": [
        {
          "internalType": "bytes32",
          "name": "",
          "type": "bytes32"
        }
      ],
      "name": "nodes",
      "outputs": [
        {
          "internalType": "bytes32",
          "name": "taskId",
          "type": "bytes32"
        },
        {
          "internalType": "bytes32",
          "name": "inputSchemaHash",
          "type": "bytes32"
        },
        {
          "internalType": "bytes32",
          "name": "outputSchemaHash",
          "type": "bytes32"
        },
        {
          "internalType": "bytes32",
          "name": "qualityRubricHash",
          "type": "bytes32"
        },
        {
          "internalType": "enum TaskDAGRegistry.NodeType",
          "name": "nodeType",
          "type": "uint8"
        },
        {
          "internalType": "uint256",
          "name": "maxBudget",
          "type": "uint256"
        },
        {
          "internalType": "uint256",
          "name": "timeoutBlocks",
          "type": "uint256"
        },
        {
          "internalType": "address",
          "name": "assignedAgent",
          "type": "address"
        },
        {
          "internalType": "enum TaskDAGRegistry.NodeStatus",
          "name": "status",
          "type": "uint8"
        },
        {
          "internalType": "uint256",
          "name": "assignedAt",
          "type": "uint256"
        },
        {
          "internalType": "uint256",
          "name": "completedAt",
          "type": "uint256"
        }
      ],
      "stateMutability": "view",
      "type": "function"
    },
    {
      "inputs": [],
      "name": "owner",
      "outputs": [
        {
          "internalType": "address",
          "name": "",
          "type": "address"
        }
      ],
      "stateMutability": "view",
      "type": "function"
    },
    {
      "inputs": [
        {
          "internalType": "address",
          "name": "_teeVerifier",
          "type": "address"
        }
      ],
      "name": "setTeeVerifier",
      "outputs": [],
      "stateMutability": "nonpayable",
      "type": "function"
    },
    {
      "inputs": [
        {
          "internalType": "bytes32",
          "name": "dagRoot",
          "type": "bytes32"
        },
        {
          "components": [
            {
              "internalType": "bytes32",
              "name": "taskId",
              "type": "bytes32"
            },
            {
              "internalType": "bytes32",
              "name": "inputSchemaHash",
              "type": "bytes32"
            },
            {
              "internalType": "bytes32",
              "name": "outputSchemaHash",
              "type": "bytes32"
            },
            {
              "internalType": "bytes32",
              "name": "qualityRubricHash",
              "type": "bytes32"
            },
            {
              "internalType": "bytes32[]",
              "name": "dependsOn",
              "type": "bytes32[]"
            },
            {
              "internalType": "enum TaskDAGRegistry.NodeType",
              "name": "nodeType",
              "type": "uint8"
            },
            {
              "internalType": "uint256",
              "name": "maxBudget",
              "type": "uint256"
            },
            {
              "internalType": "uint256",
              "name": "timeoutBlocks",
              "type": "uint256"
            },
            {
              "internalType": "address",
              "name": "assignedAgent",
              "type": "address"
            },
            {
              "internalType": "enum TaskDAGRegistry.NodeStatus",
              "name": "status",
              "type": "uint8"
            },
            {
              "internalType": "uint256",
              "name": "assignedAt",
              "type": "uint256"
            },
            {
              "internalType": "uint256",
              "name": "completedAt",
              "type": "uint256"
            }
          ],
          "internalType": "struct TaskDAGRegistry.TaskNode[]",
          "name": "taskNodes",
          "type": "tuple[]"
        }
      ],
      "name": "submitDAG",
      "outputs": [],
      "stateMutability": "payable",
      "type": "function"
    },
    {
      "inputs": [],
      "name": "teeVerifier",
      "outputs": [
        {
          "internalType": "address",
          "name": "",
          "type": "address"
        }
      ],
      "stateMutability": "view",
      "type": "function"
    },
    {
      "inputs": [
        {
          "internalType": "bytes32",
          "name": "taskId",
          "type": "bytes32"
        }
      ],
      "name": "triggerTimeout",
      "outputs": [],
      "stateMutability": "nonpayable",
      "type": "function"
    }
  ],
  "bytecode": "0x60803461011e57601f61165a38819003918201601f19168301916001600160401b0383118484101761012257808492604094855283398101031261011e57610052602061004b83610136565b9201610136565b6001600160a01b039091169081156100e8576001600160a01b03169081156100b157600380546001600160a01b031990811692909217905560058054821692909217909155600680549091163317905560405161150f908161014b8239f35b60405162461bcd60e51b815260206004820152600f60248201526e7a65726f206d657368457363726f7760881b6044820152606490fd5b60405162461bcd60e51b815260206004820152600e60248201526d7a65726f20626964456e67696e6560901b6044820152606490fd5b5f80fd5b634e487b7160e01b5f52604160045260245ffd5b51906001600160a01b038216820361011e5756fe6080806040526004361015610012575f80fd5b5f905f3560e01c908163016f72831461117a5750806317fe3ac814610acf5780631928fccf14610a8657806341536917146109c857806350c946fe146107ad5780635be4b7a71461073f5780637a8e73b8146107165780637d9fa850146106dc5780638064c23a146105bf5780638374ba6d1461051657806384c4b9ac146104d35780638da5cb5b146104aa578063cda752ff14610481578063d86e697d146103ca578063e103a7d3146103a1578063ed7bcf05146101e7578063f53a0101146101be5763f56ee3b6146100e4575f80fd5b346101bb5760203660031901126101bb5760408160c09260a08351610108816112bc565b828152826020820152828582015282606082015282608082015201526004358152806020522060405161013a816112bc565b81549182825260018060a01b03600182015416602083019081526002820154604084019081526003830154916060850192835260a060ff6005600487015496608089019788520154169501941515855260405195865260018060a01b03905116602086015251604085015251606084015251608083015251151560a0820152f35b80fd5b50346101bb57806003193601126101bb576005546040516001600160a01b039091168152602090f35b50346101bb5760203660031901126101bb5760043580825260016020526040822090600882019160ff835460a01c16600681101561038d5760028114908115610382575b501561032f57806007600961024593015491015490611352565b4311156102eb57815460ff60a01b198116600560a01b1790925560408051600581526001600160a01b039093166020840152839282915f5160206114ba5f395f51905f5291a26005546001600160a01b031690813b156102e7578291602483926040519485938492633987dcc360e11b845260048401525af180156102dc576102cb5750f35b816102d5916112f5565b6101bb5780f35b6040513d84823e3d90fd5b5050fd5b606460405162461bcd60e51b815260206004820152602060248201527f44414752656769737472793a2074696d656f7574206e6f7420726561636865646044820152fd5b60405162461bcd60e51b815260206004820152602560248201527f44414752656769737472793a206e6f6465206e6f7420696e2061637469766520604482015264737461746560d81b6064820152608490fd5b60039150145f61022b565b634e487b7160e01b85526021600452602485fd5b50346101bb5760203660031901126101bb5760206103c0600435611453565b6040519015158152f35b50346101bb5760203660031901126101bb5760406101609160043581526001602052208054906001810154906104736002820154600383015460ff60058501541661044a600686015491600787015493600888015495600a60098a0154990154996040519b8c5260208c015260408b015260608a0152608089019061125b565b60a087015260c086015260018060a01b03811660e086015260ff61010086019160a01c1661127c565b610120830152610140820152f35b50346101bb57806003193601126101bb576004546040516001600160a01b039091168152602090f35b50346101bb57806003193601126101bb576006546040516001600160a01b039091168152602090f35b50346101bb5760203660031901126101bb576104fe60406105129260043581526002602052206113bd565b604051918291602083526020830190611289565b0390f35b50346101bb5760203660031901126101bb578060043561054160018060a01b03600354163314611407565b808252600160205260086040832001600560a01b60ff60a01b19825416179055805f5160206114ba5f395f51905f526040805160058152856020820152a26005546001600160a01b031690813b156102e7578291602483926040519485938492633987dcc360e11b845260048401525af180156102dc576102cb5750f35b50346101bb5760403660031901126101bb576004356024356001600160a01b038116908190036106d8576105fe60018060a01b03600354163314611407565b81835260016020526040832090600882019060ff825460a01c1660068110156106c45760010361067557815460ff60a01b1982166001600160a81b031990911617600160a11b1790915543600990920191909155604080516002815260208101929092525f5160206114ba5f395f51905f5291a280f35b60405162461bcd60e51b815260206004820152602160248201527f44414752656769737472793a206e6f7420696e2042494444494e4720737461746044820152606560f81b6064820152608490fd5b634e487b7160e01b86526021600452602486fd5b8280fd5b50346101bb5760203660031901126101bb5760ff6008604060209360043581526001855220015460a01c16610714604051809261127c565bf35b50346101bb57806003193601126101bb576003546040516001600160a01b039091168152602090f35b50346101bb5760203660031901126101bb57604060c0916004358152806020522080549060018060a01b0360018201541690600281015460038201549060ff6005600485015494015416936040519586526020860152604085015260608401526080830152151560a0820152f35b50346101bb5760203660031901126101bb57806101606040516107cf816112d8565b828152826020820152826040820152826060820152606060808201528260a08201528260c08201528260e0820152826101008201528261012082015282610140820152015260043581526001602052604081206040519161082f836112d8565b81548352600182015491602084019283526002810154906040850191825260038101549460608101958652610866600483016113bd565b906080810191825260ff60058401541660a082019060048110156109b457815260068401549060c0830191825260078501549260e0810193845260088601549460ff61010083019660018060a01b038116885260a01c169a61012083019b60068110156109a0578c9a939a52600a6009890154986101408c01998a520154986101608b01998a526040519b60208d528c60206101a082019d519101525160408d01525160608c01525160808b0152519761018060a08b0152885180915260206101c08b019901915b81811061098a5750505091610978939161094f899a945160c08b019061125b565b5160e089015251610100880152516001600160a01b03166101208701525161014086019061127c565b51610160840152516101808301520390f35b82518a526020998a01999092019160010161092e565b634e487b7160e01b8b52602160045260248bfd5b634e487b7160e01b87526021600452602487fd5b50346101bb5760203660031901126101bb57600480549035906001600160a01b03163303610a415780825260016020525f5160206114ba5f395f51905f5260408084206008810190600160a21b60ff60a01b19835416178255600a4391015560018060a01b03905416815190600482526020820152a280f35b60405162461bcd60e51b815260206004820152601d60248201527f44414752656769737472793a206f6e6c792054454556657269666965720000006044820152606490fd5b50346101bb5760403660031901126101bb576024359060043581526002602052604081209081548310156101bb576020610ac08484611246565b90549060031b1c604051908152f35b506040366003190112610d585760043560243567ffffffffffffffff8111610d585736602382011215610d585780600401359067ffffffffffffffff8211610d58576024810190602436918460051b010111610d58575f838152602081905260409020600101546001600160a01b03166111355781156110f7575f5b828110610fff57505f90610b5e83611317565b91610b6c60405193846112f5565b838352601f19610b7b85611317565b01366020850137610b8b84611317565b91610b9960405193846112f5565b848352610ba585611317565b602084019290601f19013684375f5b868110610fab57503410610f6757604051610bce816112bc565b86815260056020820191338352604081013481526060820143815260808301918a835260a08401955f87528c5f525f60205260405f209451855560018060a01b03905116600185019060018060a01b03166bffffffffffffffffffffffff60a01b825416179055516002840155516003830155516004820155019051151560ff801983541691161790555f5b858110610d5c5750506005546001600160a01b031691823b15610d585790610ca693916020604051958694634788a0bd60e11b8652896004870152608060248701526084860190611289565b8481036003190160448601529151808352910191905f5b818110610d3f575050509181805f94336064830152039134905af18015610d3457610d1e575b5060607fa3484b59042d05a71da850f0412788f560e9a2f74af894b62e5635029e069b0991604051903382526020820152346040820152a280f35b610d2b9193505f906112f5565b5f916060610ce3565b6040513d5f823e3d90fd5b8251845286945060209384019390920191600101610cbd565b5f80fd5b610d6781878461132f565b610d7282888561132f565b355f52600160205260405f20908035825560208101356001830155604081013560028301556060810135600383015560048201610db26080830183611387565b919067ffffffffffffffff8311610f1957600160401b8311610f19578154838355808410610f41575b50905f5260205f205f5b838110610f2d57505050506005820160a08201356004811015610d585760ff8019835416911617905560c0810135600683015560e08101356007830155600882019061010081013560018060a01b0381168103610d585782546001600160a01b0319166001600160a01b0391909116178255610120810135906006821015610d5857825460ff60a01b191660a09290921b60ff60a01b169190911790915561014081013560098301556101600135600a9190910155610ea581878461132f565b355f526001602052600860405f2001600160a01b60ff60a01b19825416179055865f52600260205260405f2090610edd81888561132f565b35825492600160401b841015610f195783610efe9160018096018155611246565b819291549060031b91821b915f19901b191617905501610c5a565b634e487b7160e01b5f52604160045260245ffd5b600190602084359401938184015501610de5565b825f528360205f2091820191015b818110610f5c5750610ddb565b5f8155600101610f4f565b606460405162461bcd60e51b815260206004820152602060248201527f44414752656769737472793a20696e73756666696369656e74206275646765746044820152fd5b90610fc760019160c0610fbf858b8861132f565b013590611352565b91610fd381898661132f565b35610fde8289611373565b5260c0610fec828a8761132f565b0135610ff88288611373565b5201610bb4565b9290935f5b61101c61101286868961132f565b6080810190611387565b90508110156110eb575f5f5b868110611099575b501561103e57600101611004565b60405162461bcd60e51b815260206004820152602d60248201527f44414752656769737472793a206379636c65206465746563746564206f72206260448201526c616420646570656e64656e637960981b6064820152608490fd5b6110a481878a61132f565b356110b361101289898c61132f565b8510156110d7578460051b0135146110cd57600101611028565b505060015f611030565b634e487b7160e01b5f52603260045260245ffd5b50939092600101610b4b565b60405162461bcd60e51b815260206004820152601660248201527544414752656769737472793a20656d7074792044414760501b6044820152606490fd5b60405162461bcd60e51b815260206004820152601f60248201527f44414752656769737472793a2044414720616c726561647920657869737473006044820152606490fd5b34610d58576020366003190112610d58576004356001600160a01b0381169190829003610d58576006546001600160a01b0316330361120b575080156111d6576bffffffffffffffffffffffff60a01b60045416176004555f80f35b60405162461bcd60e51b815260206004820152600d60248201526c3d32b937903b32b934b334b2b960991b6044820152606490fd5b62461bcd60e51b81526020600482015260166024820152752220a3a932b3b4b9ba393c9d103737ba1037bbb732b960511b6044820152606490fd5b80548210156110d7575f5260205f2001905f90565b9060048210156112685752565b634e487b7160e01b5f52602160045260245ffd5b9060068210156112685752565b90602080835192838152019201905f5b8181106112a65750505090565b8251845260209384019390920191600101611299565b60c0810190811067ffffffffffffffff821117610f1957604052565b610180810190811067ffffffffffffffff821117610f1957604052565b90601f8019910116810190811067ffffffffffffffff821117610f1957604052565b67ffffffffffffffff8111610f195760051b60200190565b91908110156110d75760051b8101359061017e1981360301821215610d58570190565b9190820180921161135f57565b634e487b7160e01b5f52601160045260245ffd5b80518210156110d75760209160051b010190565b903590601e1981360301821215610d58570180359067ffffffffffffffff8211610d5857602001918160051b36038313610d5857565b90604051918281549182825260208201905f5260205f20925f5b8181106113ee5750506113ec925003836112f5565b565b84548352600194850194879450602090930192016113d7565b1561140e57565b60405162461bcd60e51b815260206004820152601b60248201527f44414752656769737472793a206f6e6c7920426964456e67696e6500000000006044820152606490fd5b5f526001602052611469600460405f20016113bd565b5f5b81518110156114b25761147e8183611373565b515f52600160205260ff600860405f20015460a01c166006811015611268576004036114ac5760010161146b565b50505f90565b505060019056fe88af9b019c4bd38efd9d4b4184e8ddcb8478faf20a99003ab613d2b002217dbfa2646970667358221220e182d1d6e9eee32382baf8d4f3b2300cb80ef8035ed4b3d81d193a18f52810ca64736f6c634300081c0033",
  "linkReferences": {},
  "deployedLinkReferences": {}
}