{
  "_format": "hh-sol-artifact-1",
  "contractName": "GenomeMarket",
  "sourceName": "contracts/GenomeMarket.sol",
  "abi": [
    {
      "inputs": [
        {
          "internalType": "address",
          "name": "_genome",
          "type": "address"
        },
        {
          "internalType": "address",
          "name": "_treasury",
          "type": "address"
        },
        {
          "internalType": "uint256",
          "name": "_platformFeeBps",
          "type": "uint256"
        }
      ],
      "stateMutability": "nonpayable",
      "type": "constructor"
    },
    {
      "anonymous": false,
      "inputs": [
        {
          "indexed": true,
          "internalType": "uint256",
          "name": "genomeId",
          "type": "uint256"
        },
        {
          "indexed": false,
          "internalType": "address",
          "name": "seller",
          "type": "address"
        }
      ],
      "name": "Delisted",
      "type": "event"
    },
    {
      "anonymous": false,
      "inputs": [
        {
          "indexed": false,
          "internalType": "uint256",
          "name": "newFeeBps",
          "type": "uint256"
        }
      ],
      "name": "FeeUpdated",
      "type": "event"
    },
    {
      "anonymous": false,
      "inputs": [
        {
          "indexed": true,
          "internalType": "uint256",
          "name": "genomeId",
          "type": "uint256"
        },
        {
          "indexed": false,
          "internalType": "address",
          "name": "seller",
          "type": "address"
        },
        {
          "indexed": false,
          "internalType": "uint256",
          "name": "price",
          "type": "uint256"
        }
      ],
      "name": "Listed",
      "type": "event"
    },
    {
      "anonymous": false,
      "inputs": [
        {
          "indexed": true,
          "internalType": "uint256",
          "name": "genomeId",
          "type": "uint256"
        }
      ],
      "name": "RentalExpired",
      "type": "event"
    },
    {
      "anonymous": false,
      "inputs": [
        {
          "indexed": true,
          "internalType": "uint256",
          "name": "genomeId",
          "type": "uint256"
        },
        {
          "indexed": false,
          "internalType": "address",
          "name": "renter",
          "type": "address"
        },
        {
          "indexed": false,
          "internalType": "uint256",
          "name": "expiresAt",
          "type": "uint256"
        },
        {
          "indexed": false,
          "internalType": "uint256",
          "name": "totalPaid",
          "type": "uint256"
        }
      ],
      "name": "Rented",
      "type": "event"
    },
    {
      "anonymous": false,
      "inputs": [
        {
          "indexed": true,
          "internalType": "uint256",
          "name": "genomeId",
          "type": "uint256"
        },
        {
          "indexed": false,
          "internalType": "address",
          "name": "seller",
          "type": "address"
        },
        {
          "indexed": false,
          "internalType": "address",
          "name": "buyer",
          "type": "address"
        },
        {
          "indexed": false,
          "internalType": "uint256",
          "name": "price",
          "type": "uint256"
        }
      ],
      "name": "Sold",
      "type": "event"
    },
    {
      "inputs": [
        {
          "internalType": "uint256",
          "name": "genomeId",
          "type": "uint256"
        }
      ],
      "name": "buy",
      "outputs": [],
      "stateMutability": "payable",
      "type": "function"
    },
    {
      "inputs": [
        {
          "internalType": "uint256",
          "name": "genomeId",
          "type": "uint256"
        }
      ],
      "name": "currentRenter",
      "outputs": [
        {
          "internalType": "address",
          "name": "",
          "type": "address"
        }
      ],
      "stateMutability": "view",
      "type": "function"
    },
    {
      "inputs": [
        {
          "internalType": "uint256",
          "name": "genomeId",
          "type": "uint256"
        }
      ],
      "name": "delist",
      "outputs": [],
      "stateMutability": "nonpayable",
      "type": "function"
    },
    {
      "inputs": [],
      "name": "genome",
      "outputs": [
        {
          "internalType": "address",
          "name": "",
          "type": "address"
        }
      ],
      "stateMutability": "view",
      "type": "function"
    },
    {
      "inputs": [
        {
          "internalType": "uint256",
          "name": "genomeId",
          "type": "uint256"
        }
      ],
      "name": "getListing",
      "outputs": [
        {
          "components": [
            {
              "internalType": "address",
              "name": "seller",
              "type": "address"
            },
            {
              "internalType": "uint256",
              "name": "price",
              "type": "uint256"
            },
            {
              "internalType": "bool",
              "name": "active",
              "type": "bool"
            }
          ],
          "internalType": "struct GenomeMarket.Listing",
          "name": "",
          "type": "tuple"
        }
      ],
      "stateMutability": "view",
      "type": "function"
    },
    {
      "inputs": [
        {
          "internalType": "uint256",
          "name": "genomeId",
          "type": "uint256"
        }
      ],
      "name": "getRental",
      "outputs": [
        {
          "components": [
            {
              "internalType": "address",
              "name": "renter",
              "type": "address"
            },
            {
              "internalType": "uint256",
              "name": "expiresAt",
              "type": "uint256"
            },
            {
              "internalType": "uint256",
              "name": "pricePerBlock",
              "type": "uint256"
            }
          ],
          "internalType": "struct GenomeMarket.Rental",
          "name": "",
          "type": "tuple"
        }
      ],
      "stateMutability": "view",
      "type": "function"
    },
    {
      "inputs": [
        {
          "internalType": "uint256",
          "name": "genomeId",
          "type": "uint256"
        }
      ],
      "name": "isRented",
      "outputs": [
        {
          "internalType": "bool",
          "name": "",
          "type": "bool"
        }
      ],
      "stateMutability": "view",
      "type": "function"
    },
    {
      "inputs": [
        {
          "internalType": "uint256",
          "name": "genomeId",
          "type": "uint256"
        },
        {
          "internalType": "uint256",
          "name": "price",
          "type": "uint256"
        }
      ],
      "name": "list",
      "outputs": [],
      "stateMutability": "nonpayable",
      "type": "function"
    },
    {
      "inputs": [
        {
          "internalType": "uint256",
          "name": "",
          "type": "uint256"
        }
      ],
      "name": "listings",
      "outputs": [
        {
          "internalType": "address",
          "name": "seller",
          "type": "address"
        },
        {
          "internalType": "uint256",
          "name": "price",
          "type": "uint256"
        },
        {
          "internalType": "bool",
          "name": "active",
          "type": "bool"
        }
      ],
      "stateMutability": "view",
      "type": "function"
    },
    {
      "inputs": [],
      "name": "owner",
      "outputs": [
        {
          "internalType": "address",
          "name": "",
          "type": "address"
        }
      ],
      "stateMutability": "view",
      "type": "function"
    },
    {
      "inputs": [],
      "name": "platformFeeBps",
      "outputs": [
        {
          "internalType": "uint256",
          "name": "",
          "type": "uint256"
        }
      ],
      "stateMutability": "view",
      "type": "function"
    },
    {
      "inputs": [
        {
          "internalType": "uint256",
          "name": "genomeId",
          "type": "uint256"
        },
        {
          "internalType": "uint256",
          "name": "blocks",
          "type": "uint256"
        },
        {
          "internalType": "uint256",
          "name": "pricePerBlock",
          "type": "uint256"
        }
      ],
      "name": "rent",
      "outputs": [],
      "stateMutability": "payable",
      "type": "function"
    },
    {
      "inputs": [
        {
          "internalType": "uint256",
          "name": "",
          "type": "uint256"
        }
      ],
      "name": "rentals",
      "outputs": [
        {
          "internalType": "address",
          "name": "renter",
          "type": "address"
        },
        {
          "internalType": "uint256",
          "name": "expiresAt",
          "type": "uint256"
        },
        {
          "internalType": "uint256",
          "name": "pricePerBlock",
          "type": "uint256"
        }
      ],
      "stateMutability": "view",
      "type": "function"
    },
    {
      "inputs": [
        {
          "internalType": "uint256",
          "name": "_feeBps",
          "type": "uint256"
        }
      ],
      "name": "setPlatformFee",
      "outputs": [],
      "stateMutability": "nonpayable",
      "type": "function"
    },
    {
      "inputs": [],
      "name": "treasury",
      "outputs": [
        {
          "internalType": "address",
          "name": "",
          "type": "address"
        }
      ],
      "stateMutability": "view",
      "type": "function"
    }
  ],
  "bytecode": "0x60803461017f57601f6110a738819003918201601f19168301916001600160401b038311848410176101835780849260609460405283398101031261017f5761004781610197565b90604061005660208301610197565b910151916001600160a01b031690811561014c576001600160a01b0316908115610117576103e883116100c65760018060a01b0319600254161760025560018060a01b031960035416176003556005553360018060a01b03196004541617600455604051610efb90816101ac8239f35b60405162461bcd60e51b8152602060048201526024808201527f47656e6f6d654d61726b65743a2066656520746f6f206869676820286d6178206044820152633130252960e01b6064820152608490fd5b60405162461bcd60e51b815260206004820152600d60248201526c7a65726f20747265617375727960981b6044820152606490fd5b60405162461bcd60e51b815260206004820152600b60248201526a7a65726f2067656e6f6d6560a81b6044820152606490fd5b5f80fd5b634e487b7160e01b5f52604160045260245ffd5b51906001600160a01b038216820361017f5756fe6080806040526004361015610012575f80fd5b5f905f3560e01c908163075b862e1461096357508063107a274a146108ed57806312e8e2c31461084d57806322dcd13e1461083057806350fd73671461057e57806361d027b314610556578063652bd29e146104e657806374989eb9146104b65780638da5cb5b1461048e578063964bc33f146103b5578063aa15d40f14610347578063af94a1d1146102f7578063d5ba0428146102cf578063d96a094a146101135763de74e57b146100c3575f80fd5b346101105760203660031901126101105760406060916004358152806020522060018060a01b038154169060ff600260018301549201541690604051928352602083015215156040820152f35b80fd5b5060203660031901126102cb57600435805f525f60205260405f20600281019081549161014260ff8416610e79565b60018201549161015483341015610ce3565b60018060a01b039054169260ff1916905561271061017460055483610cbc565b0461017f8183610dab565b6002546001600160a01b0316803b156102cb576040516323b872dd60e01b81526001600160a01b038616600482015233602482015260448101879052905f908290606490829084905af180156102c0576102a9575b5090858080808095888282156102a0575bf11561029357600354829182918291906001600160a01b031682821561028a575bf11561027657803411610258575b604080516001600160a01b039390931683523360208401528201527f23f50d55776d8003622a982ade45a6c7f083116c8dbbcd980f59942f440badb190606090a280f35b838080806102668534610dab565b818115610281575b3390f1610214575b6040513d85823e3d90fd5b506108fc61026e565b506108fc610206565b50604051903d90823e3d90fd5b506108fc6101e5565b6102b7919296505f90610d6a565b5f94905f6101d4565b6040513d5f823e3d90fd5b5f80fd5b346102cb575f3660031901126102cb576002546040516001600160a01b039091168152602090f35b346102cb5760203660031901126102cb576004355f9081526001602081815260409283902080549281015460029091015484516001600160a01b0390941684529183015291810191909152606090f35b346102cb5760203660031901126102cb576004355f526001602052602060405f2060405161037481610d3a565b60018060a01b03825416908181526040600260018501549485878501520154910152151590816103aa575b506040519015158152f35b90504311158261039f565b346102cb5760203660031901126102cb57600435805f525f60205260405f2060028101908154906103e860ff8316610e79565b546001600160a01b0316338114801561047a575b15610435577f8e51b30707579d5dafbd56c2b27a7d382dd32fce8afa83687e99daf0ee47f8af9260209260ff19169055604051908152a2005b60405162461bcd60e51b815260206004820152601a60248201527f47656e6f6d654d61726b65743a20756e617574686f72697a65640000000000006044820152606490fd5b506004546001600160a01b031633146103fc565b346102cb575f3660031901126102cb576004546040516001600160a01b039091168152602090f35b346102cb5760203660031901126102cb5760206104d4600435610e2f565b6040516001600160a01b039091168152f35b346102cb5760203660031901126102cb576104ff610dc5565b506004355f526001602052606060405f2060405161051c81610d3a565b60018060a01b0382541691828252604060026001830154926020850193845201549201918252604051928352516020830152516040820152f35b346102cb575f3660031901126102cb576003546040516001600160a01b039091168152602090f35b346102cb5760403660031901126102cb5760043560243560018060a01b03600254166040516331a9108f60e11b8152836004820152602081602481855afa80156102c0576105de915f91610811575b506001600160a01b03163314610de3565b60405163020604bf60e21b815260048101849052602081602481855afa9081156102c0575f916107e2575b506001600160a01b0316301490811561076b575b50156107265761062e811515610c70565b815f525f60205260ff600260405f200154166106e15760407f50955776c5778c3b7d968d86d8c51fb6b29a7a74c20866b533268e209fc0834391815161067381610d3a565b338152600260208201918383528481019260018452875f525f602052855f209160018060a01b039060018060a01b03905116166bffffffffffffffffffffffff60a01b835416178255516001820155019051151560ff801983541691161790558151903382526020820152a2005b60405162461bcd60e51b815260206004820152601c60248201527f47656e6f6d654d61726b65743a20616c7265616479206c6973746564000000006044820152606490fd5b60405162461bcd60e51b815260206004820152601a60248201527f47656e6f6d654d61726b65743a206e6f7420617070726f7665640000000000006044820152606490fd5b60405163e985e9c560e01b81523360048201523060248201529150602090829060449082905afa9081156102c0575f916107a7575b508361061d565b90506020813d6020116107da575b816107c260209383610d6a565b810103126102cb575180151581036102cb57836107a0565b3d91506107b5565b610804915060203d60201161080a575b6107fc8183610d6a565b810190610d8c565b84610609565b503d6107f2565b61082a915060203d60201161080a576107fc8183610d6a565b856105cd565b346102cb575f3660031901126102cb576020600554604051908152f35b346102cb5760203660031901126102cb5760043561087660018060a01b03600454163314610de3565b6103e881116108b0576020817f8c4d35e54a3f2ef1134138fd8ea3daee6a3c89e10d2665996babdf70261e2c7692600555604051908152a1005b60405162461bcd60e51b815260206004820152601560248201527447656e6f6d654d61726b65743a206d61782031302560581b6044820152606490fd5b346102cb5760203660031901126102cb57610906610dc5565b506004355f525f602052606060405f2060405161092281610d3a565b60018060a01b0382541691828252604060ff600260018401549360208601948552015416920191151582526040519283525160208301525115156040820152f35b60603660031901126102cb576004359060243590604435908215610c2e575061098d811515610c70565b6109978183610cbc565b906109a482341015610ce3565b835f52600160205260405f206040516109bc81610d3a565b60018060a01b038254169081815260406002600185015494856020850152015491015215908115610c24575b5015610bdf576002546040516331a9108f60e11b81526004810186905290602090829060249082906001600160a01b03165afa9081156102c0575f91610bc0575b506001600160a01b0316908115610b7b575f80808093612710610a4e60055489610cbc565b0495610a5a8789610dab565b916002610a678b43610db8565b9160405192610a7584610d3a565b338452602080850191825260408086019384528f89526001918290528820945185546001600160a01b0319166001600160a01b039190911617855590519084015551910155828215610b72575bf1156102c0576003545f918291829182916001600160a01b0316828215610b69575bf1156102c057803411610b38575b610b1d7fcea8ef445f087e63df6f242396764cabddc0c40f6ed03ede0a0ce1feb5404b719243610db8565b604080513381526020810192909252810191909152606090a2005b5f808080610b468534610dab565b818115610b60575b3390f1610af2576040513d5f823e3d90fd5b506108fc610b4e565b506108fc610ae4565b506108fc610ac2565b60405162461bcd60e51b815260206004820152601e60248201527f47656e6f6d654d61726b65743a2067656e6f6d65206e6f7420657869737400006044820152606490fd5b610bd9915060203d60201161080a576107fc8183610d6a565b85610a29565b60405162461bcd60e51b815260206004820152601c60248201527f47656e6f6d654d61726b65743a20616c72656164792072656e746564000000006044820152606490fd5b90504311856109e8565b62461bcd60e51b815260206004820152601960248201527f47656e6f6d654d61726b65743a207a65726f20626c6f636b73000000000000006044820152606490fd5b15610c7757565b60405162461bcd60e51b815260206004820152601860248201527f47656e6f6d654d61726b65743a207a65726f20707269636500000000000000006044820152606490fd5b81810292918115918404141715610ccf57565b634e487b7160e01b5f52601160045260245ffd5b15610cea57565b60405162461bcd60e51b815260206004820152602260248201527f47656e6f6d654d61726b65743a20696e73756666696369656e74207061796d656044820152611b9d60f21b6064820152608490fd5b6060810190811067ffffffffffffffff821117610d5657604052565b634e487b7160e01b5f52604160045260245ffd5b90601f8019910116810190811067ffffffffffffffff821117610d5657604052565b908160209103126102cb57516001600160a01b03811681036102cb5790565b91908203918211610ccf57565b91908201809211610ccf57565b60405190610dd282610d3a565b5f6040838281528260208201520152565b15610dea57565b60405162461bcd60e51b815260206004820152601760248201527f47656e6f6d654d61726b65743a206e6f74206f776e65720000000000000000006044820152606490fd5b5f52600160205260405f2060405190610e4782610d3a565b60018060a01b0381541691828152604060026001840154938460208501520154910152431115610e7657505f90565b90565b15610e8057565b60405162461bcd60e51b815260206004820152601860248201527f47656e6f6d654d61726b65743a206e6f74206c697374656400000000000000006044820152606490fdfea264697066735822122068bb1b658fa96a7c4571e7865153561f0d32b58017118a06100979acd53a5f1b64736f6c634300081c0033",
  "linkReferences": {},
  "deployedLinkReferences": {}
}