{
  "_format": "hh-sol-artifact-1",
  "contractName": "BidEngine",
  "sourceName": "contracts/BidEngine.sol",
  "abi": [
    {
      "inputs": [
        {
          "internalType": "address",
          "name": "_agentRegistry",
          "type": "address"
        },
        {
          "internalType": "address",
          "name": "_dagRegistry",
          "type": "address"
        },
        {
          "internalType": "address",
          "name": "_auctioneer",
          "type": "address"
        }
      ],
      "stateMutability": "nonpayable",
      "type": "constructor"
    },
    {
      "anonymous": false,
      "inputs": [
        {
          "indexed": true,
          "internalType": "bytes32",
          "name": "taskId",
          "type": "bytes32"
        },
        {
          "indexed": false,
          "internalType": "address",
          "name": "winner",
          "type": "address"
        },
        {
          "indexed": false,
          "internalType": "uint256",
          "name": "price",
          "type": "uint256"
        }
      ],
      "name": "BidAwarded",
      "type": "event"
    },
    {
      "anonymous": false,
      "inputs": [
        {
          "indexed": true,
          "internalType": "bytes32",
          "name": "taskId",
          "type": "bytes32"
        },
        {
          "indexed": false,
          "internalType": "address",
          "name": "agent",
          "type": "address"
        },
        {
          "indexed": false,
          "internalType": "uint256",
          "name": "price",
          "type": "uint256"
        },
        {
          "indexed": false,
          "internalType": "uint256",
          "name": "eta",
          "type": "uint256"
        }
      ],
      "name": "BidSubmitted",
      "type": "event"
    },
    {
      "anonymous": false,
      "inputs": [
        {
          "indexed": true,
          "internalType": "bytes32",
          "name": "taskId",
          "type": "bytes32"
        },
        {
          "indexed": false,
          "internalType": "string",
          "name": "reason",
          "type": "string"
        }
      ],
      "name": "NodeFailed",
      "type": "event"
    },
    {
      "inputs": [],
      "name": "BID_WINDOW",
      "outputs": [
        {
          "internalType": "uint256",
          "name": "",
          "type": "uint256"
        }
      ],
      "stateMutability": "view",
      "type": "function"
    },
    {
      "inputs": [],
      "name": "agentRegistry",
      "outputs": [
        {
          "internalType": "address",
          "name": "",
          "type": "address"
        }
      ],
      "stateMutability": "view",
      "type": "function"
    },
    {
      "inputs": [],
      "name": "auctioneer",
      "outputs": [
        {
          "internalType": "address",
          "name": "",
          "type": "address"
        }
      ],
      "stateMutability": "view",
      "type": "function"
    },
    {
      "inputs": [
        {
          "internalType": "bytes32",
          "name": "taskId",
          "type": "bytes32"
        },
        {
          "internalType": "address",
          "name": "winnerAgent",
          "type": "address"
        }
      ],
      "name": "awardBid",
      "outputs": [],
      "stateMutability": "nonpayable",
      "type": "function"
    },
    {
      "inputs": [
        {
          "internalType": "bytes32",
          "name": "",
          "type": "bytes32"
        }
      ],
      "name": "awarded",
      "outputs": [
        {
          "internalType": "bool",
          "name": "",
          "type": "bool"
        }
      ],
      "stateMutability": "view",
      "type": "function"
    },
    {
      "inputs": [
        {
          "internalType": "bytes32",
          "name": "",
          "type": "bytes32"
        },
        {
          "internalType": "uint256",
          "name": "",
          "type": "uint256"
        }
      ],
      "name": "bids",
      "outputs": [
        {
          "internalType": "address",
          "name": "agent",
          "type": "address"
        },
        {
          "internalType": "uint256",
          "name": "price",
          "type": "uint256"
        },
        {
          "internalType": "uint256",
          "name": "eta",
          "type": "uint256"
        },
        {
          "internalType": "uint256",
          "name": "reputation",
          "type": "uint256"
        },
        {
          "internalType": "uint256",
          "name": "submittedAt",
          "type": "uint256"
        }
      ],
      "stateMutability": "view",
      "type": "function"
    },
    {
      "inputs": [],
      "name": "dagRegistry",
      "outputs": [
        {
          "internalType": "address",
          "name": "",
          "type": "address"
        }
      ],
      "stateMutability": "view",
      "type": "function"
    },
    {
      "inputs": [
        {
          "internalType": "bytes32",
          "name": "taskId",
          "type": "bytes32"
        },
        {
          "internalType": "string",
          "name": "reason",
          "type": "string"
        }
      ],
      "name": "failNode",
      "outputs": [],
      "stateMutability": "nonpayable",
      "type": "function"
    },
    {
      "inputs": [
        {
          "internalType": "bytes32",
          "name": "taskId",
          "type": "bytes32"
        }
      ],
      "name": "getBidCount",
      "outputs": [
        {
          "internalType": "uint256",
          "name": "",
          "type": "uint256"
        }
      ],
      "stateMutability": "view",
      "type": "function"
    },
    {
      "inputs": [
        {
          "internalType": "bytes32",
          "name": "taskId",
          "type": "bytes32"
        }
      ],
      "name": "getBids",
      "outputs": [
        {
          "components": [
            {
              "internalType": "address",
              "name": "agent",
              "type": "address"
            },
            {
              "internalType": "uint256",
              "name": "price",
              "type": "uint256"
            },
            {
              "internalType": "uint256",
              "name": "eta",
              "type": "uint256"
            },
            {
              "internalType": "uint256",
              "name": "reputation",
              "type": "uint256"
            },
            {
              "internalType": "uint256",
              "name": "submittedAt",
              "type": "uint256"
            }
          ],
          "internalType": "struct BidEngine.Bid[]",
          "name": "",
          "type": "tuple[]"
        }
      ],
      "stateMutability": "view",
      "type": "function"
    },
    {
      "inputs": [
        {
          "internalType": "bytes32",
          "name": "taskId",
          "type": "bytes32"
        }
      ],
      "name": "getWinner",
      "outputs": [
        {
          "internalType": "address",
          "name": "",
          "type": "address"
        }
      ],
      "stateMutability": "view",
      "type": "function"
    },
    {
      "inputs": [],
      "name": "owner",
      "outputs": [
        {
          "internalType": "address",
          "name": "",
          "type": "address"
        }
      ],
      "stateMutability": "view",
      "type": "function"
    },
    {
      "inputs": [
        {
          "internalType": "bytes32",
          "name": "taskId",
          "type": "bytes32"
        },
        {
          "internalType": "uint256",
          "name": "price",
          "type": "uint256"
        },
        {
          "internalType": "uint256",
          "name": "eta",
          "type": "uint256"
        }
      ],
      "name": "submitBid",
      "outputs": [],
      "stateMutability": "nonpayable",
      "type": "function"
    },
    {
      "inputs": [
        {
          "internalType": "bytes32",
          "name": "",
          "type": "bytes32"
        }
      ],
      "name": "winner",
      "outputs": [
        {
          "internalType": "address",
          "name": "",
          "type": "address"
        }
      ],
      "stateMutability": "view",
      "type": "function"
    }
  ],
  "bytecode": "0x60803461018957601f610de838819003918201601f19168301916001600160401b0383118484101761018d5780849260609460405283398101031261018957610047816101a1565b61005f6040610058602085016101a1565b93016101a1565b60146007556001600160a01b0390911691821561014f576001600160a01b0316908115610117576001600160a01b03169182156100e057600380546001600160a01b031990811692909217905560048054821692909217909155600580548216929092179091556006805490911633179055604051610c3290816101b68239f35b60405162461bcd60e51b815260206004820152600f60248201526e3d32b9379030bab1ba34b7b732b2b960891b6044820152606490fd5b60405162461bcd60e51b815260206004820152601060248201526f7a65726f20646167526567697374727960801b6044820152606490fd5b60405162461bcd60e51b81526020600482015260126024820152717a65726f206167656e74526567697374727960701b6044820152606490fd5b5f80fd5b634e487b7160e01b5f52604160045260245ffd5b51906001600160a01b03821682036101895756fe6080806040526004361015610012575f80fd5b5f905f3560e01c9081630d1cfcae146109ca5750806315659dde146109a15780631e5f91491461096f578063305b630c1461096f578063315fb59414610947578063483f245a146106b15780635ec2c7bf146106885780638da5cb5b1461065f5780639d4f988b14610527578063a5df187e146104f8578063be0b42311461028f578063e7067c4914610271578063f61f1722146101305763f7e65b1c146100b8575f80fd5b3461012d57604036600319011261012d57602435906004358152806020526040812090815483101561012d5760a06100f084846109ed565b50600180831b0381541690600181015490600281015460046003830154920154926040519485526020850152604084015260608301526080820152f35b80fd5b503461012d57604036600319011261012d5760043560243567ffffffffffffffff811161026d573660238201121561026d5780600401359067ffffffffffffffff821161025a57366024838301011161025a5761019860018060a01b03600554163314610a1a565b82845260016020526101b160ff60408620541615610a66565b60045484906001600160a01b0316803b1561026957818091602460405180948193638374ba6d60e01b83528a60048401525af1801561025e57610245575b50506040602491837ff2646c12b4b16433b0cb01174d1e426104ada83ced957c829b1988ac4f0204029483519485936020855282602086015201848401378181018301879052601f01601f19168101030190a280f35b8161024f91610ae2565b61025a57835f6101ef565b8380fd5b6040513d84823e3d90fd5b5080fd5b8280fd5b503461012d578060031936011261012d576020600754604051908152f35b503461012d57606036600319011261012d5760043560243560443560018060a01b036003541660405163c3c5a54760e01b8152336004820152602081602481855afa9081156104ed5786916104ae575b50156104695760206024918587526001825261030260ff60408920541615610a66565b604051634e44d07160e11b815233600482015292839182905afa90811561045e578591610428575b5083855284602052604085206040519161034383610ab2565b338352602083018581526040840190858252606085019283526080850193438552805490680100000000000000008210156104145790610388916001820181556109ed565b959095610400575185546001600160a01b0319166001600160a01b039190911617855551600185015551600284015551600383015551600491909101556040805133815260208101939093528201527fd7065d9f36ddac2c4ac04341301746ec2eb20c41fc3fd7c41c360fc70233d27390606090a280f35b634e487b7160e01b8a5260048a905260248afd5b634e487b7160e01b8b52604160045260248bfd5b90506020813d602011610456575b8161044360209383610ae2565b8101031261045257515f61032a565b8480fd5b3d9150610436565b6040513d87823e3d90fd5b60405162461bcd60e51b815260206004820152601f60248201527f426964456e67696e653a206167656e74206e6f742072656769737465726564006044820152606490fd5b90506020813d6020116104e5575b816104c960209383610ae2565b810103126104e1575180151581036104e1575f6102df565b8580fd5b3d91506104bc565b6040513d88823e3d90fd5b503461012d57602036600319011261012d5760ff60406020926004358152600184522054166040519015158152f35b503461012d57602036600319011261012d5760043581528060205260408120805467ffffffffffffffff811161064b576040519061056b60208260051b0183610ae2565b80825260208201809385526020852085915b8383106105f957868587604051928392602084019060208552518091526040840192915b8181106105af575050500390f35b91935091602060a0600192608087518580851b03815116835284810151858401526040810151604084015260608101516060840152015160808201520194019101918493926105a1565b6005602060019260405161060c81610ab2565b848060a01b038654168152848601548382015260028601546040820152600386015460608201526004860154608082015281520192019201919061057d565b634e487b7160e01b83526041600452602483fd5b503461012d578060031936011261012d576006546040516001600160a01b039091168152602090f35b503461012d578060031936011261012d576005546040516001600160a01b039091168152602090f35b50346108fe5760403660031901126108fe576024356001600160a01b03811690600435908281036108fe57610714906106f560018060a01b03600554163314610a1a565b825f52600160205261070e60ff60405f20541615610a66565b82610b18565b15610902575f818152600160208181526040808420805460ff191690931790925560029052902080546001600160a01b031916831790556004546001600160a01b0316803b156108fe575f8091604460405180948193634032611d60e11b83528760048401528860248401525af180156108f3576108de575b5082918184528360205260408420805467ffffffffffffffff81116108ca57604051916107c060208360051b0184610ae2565b81835286526020808720879184015b8383106108785750505050845b815181101561084c57826001600160a01b036107f88385610b04565b51511614610808576001016107dc565b7e8ca5fce12ddf1d947e2d1d7b360d710c2bb5eef2268ead65a7a24340ce796e93945061083a60209160409493610b04565b5101515b82519182526020820152a280f35b50506040907e8ca5fce12ddf1d947e2d1d7b360d710c2bb5eef2268ead65a7a24340ce796e929361083e565b6005602060019260405161088b81610ab2565b848060a01b03865416815284860154838201526002860154604082015260038601546060820152600486015460808201528152019201920191906107cf565b634e487b7160e01b86526041600452602486fd5b6108eb9193505f90610ae2565b5f915f61078d565b6040513d5f823e3d90fd5b5f80fd5b60405162461bcd60e51b815260206004820152601c60248201527f426964456e67696e653a2077696e6e657220686173206e6f20626964000000006044820152606490fd5b346108fe575f3660031901126108fe576004546040516001600160a01b039091168152602090f35b346108fe5760203660031901126108fe576004355f526002602052602060018060a01b0360405f205416604051908152f35b346108fe5760203660031901126108fe576004355f525f602052602060405f2054604051908152f35b346108fe575f3660031901126108fe576003546001600160a01b03168152602090f35b8054821015610a06575f52600560205f20910201905f90565b634e487b7160e01b5f52603260045260245ffd5b15610a2157565b60405162461bcd60e51b815260206004820152601a60248201527f426964456e67696e653a206f6e6c792061756374696f6e6565720000000000006044820152606490fd5b15610a6d57565b60405162461bcd60e51b815260206004820152601a60248201527f426964456e67696e653a20616c726561647920617761726465640000000000006044820152606490fd5b60a0810190811067ffffffffffffffff821117610ace57604052565b634e487b7160e01b5f52604160045260245ffd5b90601f8019910116810190811067ffffffffffffffff821117610ace57604052565b8051821015610a065760209160051b010190565b5f525f60205260405f2090815467ffffffffffffffff8111610ace5760405192610b4860208360051b0185610ae2565b81845260208401905f5260205f205f915b838310610baa57505050505f5b8251811015610ba3576001600160a01b03610b818285610b04565b5151166001600160a01b03831614610b9b57600101610b66565b505050600190565b5050505f90565b60056020600192604051610bbd81610ab2565b848060a01b0386541681528486015483820152600286015460408201526003860154606082015260048601546080820152815201920192019190610b5956fea26469706673582212207989923406dc0aa9eb62bdaf80263d6bf8408adc6026bb26ee7d453121fa603564736f6c634300081c0033",
  "linkReferences": {},
  "deployedLinkReferences": {}
}