{
  "_format": "hh-sol-artifact-1",
  "contractName": "InferencePool",
  "sourceName": "contracts/InferencePool.sol",
  "abi": [
    {
      "inputs": [
        {
          "internalType": "address",
          "name": "_genome",
          "type": "address"
        },
        {
          "internalType": "address",
          "name": "_treasury",
          "type": "address"
        },
        {
          "internalType": "uint256",
          "name": "_platformShare",
          "type": "uint256"
        }
      ],
      "stateMutability": "nonpayable",
      "type": "constructor"
    },
    {
      "anonymous": false,
      "inputs": [
        {
          "indexed": true,
          "internalType": "uint256",
          "name": "genomeId",
          "type": "uint256"
        }
      ],
      "name": "GenomeDeployedToPool",
      "type": "event"
    },
    {
      "anonymous": false,
      "inputs": [
        {
          "indexed": true,
          "internalType": "uint256",
          "name": "genomeId",
          "type": "uint256"
        }
      ],
      "name": "GenomeRemovedFromPool",
      "type": "event"
    },
    {
      "anonymous": false,
      "inputs": [
        {
          "indexed": true,
          "internalType": "uint256",
          "name": "genomeId",
          "type": "uint256"
        },
        {
          "indexed": false,
          "internalType": "uint256",
          "name": "holderAmount",
          "type": "uint256"
        },
        {
          "indexed": false,
          "internalType": "uint256",
          "name": "platformAmount",
          "type": "uint256"
        }
      ],
      "name": "RevenueDistributed",
      "type": "event"
    },
    {
      "anonymous": false,
      "inputs": [
        {
          "indexed": true,
          "internalType": "uint256",
          "name": "genomeId",
          "type": "uint256"
        },
        {
          "indexed": false,
          "internalType": "uint256",
          "name": "amount",
          "type": "uint256"
        }
      ],
      "name": "RevenueReceived",
      "type": "event"
    },
    {
      "anonymous": false,
      "inputs": [
        {
          "indexed": true,
          "internalType": "uint256",
          "name": "genomeId",
          "type": "uint256"
        },
        {
          "indexed": false,
          "internalType": "address",
          "name": "holder",
          "type": "address"
        },
        {
          "indexed": false,
          "internalType": "uint256",
          "name": "amount",
          "type": "uint256"
        }
      ],
      "name": "RewardClaimed",
      "type": "event"
    },
    {
      "inputs": [
        {
          "internalType": "uint256",
          "name": "genomeId",
          "type": "uint256"
        }
      ],
      "name": "addToPool",
      "outputs": [],
      "stateMutability": "nonpayable",
      "type": "function"
    },
    {
      "inputs": [
        {
          "internalType": "uint256",
          "name": "genomeId",
          "type": "uint256"
        }
      ],
      "name": "claimReward",
      "outputs": [],
      "stateMutability": "nonpayable",
      "type": "function"
    },
    {
      "inputs": [
        {
          "internalType": "uint256",
          "name": "",
          "type": "uint256"
        }
      ],
      "name": "deployed",
      "outputs": [
        {
          "internalType": "bool",
          "name": "",
          "type": "bool"
        }
      ],
      "stateMutability": "view",
      "type": "function"
    },
    {
      "inputs": [
        {
          "internalType": "uint256",
          "name": "",
          "type": "uint256"
        }
      ],
      "name": "deployedGenomes",
      "outputs": [
        {
          "internalType": "uint256",
          "name": "",
          "type": "uint256"
        }
      ],
      "stateMutability": "view",
      "type": "function"
    },
    {
      "inputs": [
        {
          "internalType": "uint256",
          "name": "genomeId",
          "type": "uint256"
        }
      ],
      "name": "distributeRevenue",
      "outputs": [],
      "stateMutability": "payable",
      "type": "function"
    },
    {
      "inputs": [],
      "name": "genome",
      "outputs": [
        {
          "internalType": "address",
          "name": "",
          "type": "address"
        }
      ],
      "stateMutability": "view",
      "type": "function"
    },
    {
      "inputs": [],
      "name": "getDeployedGenomes",
      "outputs": [
        {
          "internalType": "uint256[]",
          "name": "",
          "type": "uint256[]"
        }
      ],
      "stateMutability": "view",
      "type": "function"
    },
    {
      "inputs": [
        {
          "internalType": "uint256",
          "name": "genomeId",
          "type": "uint256"
        }
      ],
      "name": "getPendingReward",
      "outputs": [
        {
          "internalType": "uint256",
          "name": "",
          "type": "uint256"
        }
      ],
      "stateMutability": "view",
      "type": "function"
    },
    {
      "inputs": [],
      "name": "holderShare",
      "outputs": [
        {
          "internalType": "uint256",
          "name": "",
          "type": "uint256"
        }
      ],
      "stateMutability": "view",
      "type": "function"
    },
    {
      "inputs": [
        {
          "internalType": "uint256",
          "name": "genomeId",
          "type": "uint256"
        }
      ],
      "name": "isDeployed",
      "outputs": [
        {
          "internalType": "bool",
          "name": "",
          "type": "bool"
        }
      ],
      "stateMutability": "view",
      "type": "function"
    },
    {
      "inputs": [],
      "name": "owner",
      "outputs": [
        {
          "internalType": "address",
          "name": "",
          "type": "address"
        }
      ],
      "stateMutability": "view",
      "type": "function"
    },
    {
      "inputs": [
        {
          "internalType": "uint256",
          "name": "",
          "type": "uint256"
        }
      ],
      "name": "pendingRewards",
      "outputs": [
        {
          "internalType": "uint256",
          "name": "",
          "type": "uint256"
        }
      ],
      "stateMutability": "view",
      "type": "function"
    },
    {
      "inputs": [],
      "name": "platformShare",
      "outputs": [
        {
          "internalType": "uint256",
          "name": "",
          "type": "uint256"
        }
      ],
      "stateMutability": "view",
      "type": "function"
    },
    {
      "inputs": [
        {
          "internalType": "uint256",
          "name": "genomeId",
          "type": "uint256"
        }
      ],
      "name": "removeFromPool",
      "outputs": [],
      "stateMutability": "nonpayable",
      "type": "function"
    },
    {
      "inputs": [
        {
          "internalType": "uint256",
          "name": "",
          "type": "uint256"
        }
      ],
      "name": "totalEarned",
      "outputs": [
        {
          "internalType": "uint256",
          "name": "",
          "type": "uint256"
        }
      ],
      "stateMutability": "view",
      "type": "function"
    },
    {
      "inputs": [],
      "name": "treasury",
      "outputs": [
        {
          "internalType": "address",
          "name": "",
          "type": "address"
        }
      ],
      "stateMutability": "view",
      "type": "function"
    },
    {
      "stateMutability": "payable",
      "type": "receive"
    }
  ],
  "bytecode": "0x6080346101b057601f610d3e38819003918201601f19168301916001600160401b038311848410176101b4578084926060946040528339810103126101b057610047816101c8565b906040610056602083016101c8565b910151916001600160a01b031690811561017d576001600160a01b031690811561014857610bb883116100ea5760018060a01b03195f5416175f5560018060a01b03196001541617600155806003556127100361271081116100d657600455600280546001600160a01b03191633179055604051610b6190816101dd8239f35b634e487b7160e01b5f52601160045260245ffd5b60405162461bcd60e51b815260206004820152603060248201527f496e666572656e6365506f6f6c3a20706c6174666f726d20736861726520746f60448201526f6f206869676820286d6178203330252960801b6064820152608490fd5b60405162461bcd60e51b815260206004820152600d60248201526c7a65726f20747265617375727960981b6044820152606490fd5b60405162461bcd60e51b815260206004820152600b60248201526a7a65726f2067656e6f6d6560a81b6044820152606490fd5b5f80fd5b634e487b7160e01b5f52604160045260245ffd5b51906001600160a01b03821682036101b05756fe608080604052600436101561001c575b50361561001a575f80fd5b005b5f905f3560e01c9081631450444514610a5c5750806315b40ec014610a2d57806316f77fc6146109775780631c5fc483146106bb578063336226c01461068357806359fde1e01461044c57806361d027b3146104235780637211bbc9146103f95780637dcb2abf146103f95780638da5cb5b146103d057806398d15e13146103b2578063a9fc0f7314610388578063ae169a50146101eb578063d0a8bc2c1461012c578063d5ba0428146101055763e3336f2b0361000f57346101025760203660031901126101025760ff60406020926004358152600584522054166040519015158152f35b80fd5b5034610102578060031936011261010257546040516001600160a01b039091168152602090f35b50346101025760203660031901126101025760043561015660018060a01b03600254163314610ac4565b808252600560205260ff604083205416156101a657808252600560205260408220805460ff191690557f9ac078d525ce521cf03916dc5dabcdbe667e6a973a80d57a59a03a54bd4d42b98280a280f35b60405162461bcd60e51b815260206004820152601a60248201527f496e666572656e6365506f6f6c3a206e6f7420696e20706f6f6c0000000000006044820152606490fd5b50346101025760203660031901126101025780546040516331a9108f60e11b81526004803590820181905291602090829060249082906001600160a01b03165afa9081156102ad578391610342575b506001600160a01b0316338190036102fd578183526006602052604083205480156102b857828452600660205283604081205583808080848682f1156102ad577f24b5efa61dd1cfc659205a97fb8ed868f3cb8c81922bab2b96423e5de1de2cb79160409182519182526020820152a280f35b6040513d85823e3d90fd5b60405162461bcd60e51b815260206004820152601f60248201527f496e666572656e6365506f6f6c3a206e6f7468696e6720746f20636c61696d006044820152606490fd5b60405162461bcd60e51b815260206004820152601f60248201527f496e666572656e6365506f6f6c3a206e6f742067656e6f6d65206f776e6572006044820152606490fd5b90506020813d602011610380575b8161035d60209383610aa2565b8101031261037c57516001600160a01b038116810361037c575f61023a565b8280fd5b3d9150610350565b50346101025760203660031901126101025760406020916004358152600783522054604051908152f35b50346101025780600319360112610102576020600354604051908152f35b50346101025780600319360112610102576002546040516001600160a01b039091168152602090f35b50346101025760203660031901126101025760406020916004358152600683522054604051908152f35b50346101025780600319360112610102576001546040516001600160a01b039091168152602090f35b5060203660031901126105ce57600435805f52600560205260ff60405f205416156106345734156105ef5760035480340290348204036105db576127109004803403903482116105db57825f52600660205260405f206104ad838254610b1e565b9055825f52600760205260405f206104c6348254610b1e565b90555f8080808460018060a01b03600154168282156105d2575bf1156105c3575f546001600160a01b0316803b156105ce575f80916044604051809481936305d0d2b960e01b83528960048401523460248401525af180156105c357610586575b50604083927f6215b003e186dbc79e3bd07b486dc69758f50dab026e5d485d4a945d560154479282519182526020820152a27ff213ae9678e29ddf71cfd6bb58204207ac2f5a37f62a198ca6bc86737f0158686020604051348152a280f35b7f6215b003e186dbc79e3bd07b486dc69758f50dab026e5d485d4a945d5601544791945083926105b85f604093610aa2565b5f9592509250610527565b6040513d5f823e3d90fd5b5f80fd5b506108fc6104e0565b634e487b7160e01b5f52601160045260245ffd5b60405162461bcd60e51b815260206004820152601b60248201527f496e666572656e6365506f6f6c3a207a65726f20726576656e756500000000006044820152606490fd5b60405162461bcd60e51b815260206004820152602160248201527f496e666572656e6365506f6f6c3a2067656e6f6d65206e6f7420696e20706f6f6044820152601b60fa1b6064820152608490fd5b346105ce5760203660031901126105ce576004356008548110156105ce576106ac602091610a76565b90549060031b1c604051908152f35b346105ce5760203660031901126105ce576004356106e460018060a01b03600254163314610ac4565b805f52600560205260ff60405f205416610932575f80546040516332eb3acd60e11b8152600481018490529190829060249082906001600160a01b03165afa80156105c3575f915f91610867575b5060ff60029116036108175760ff60589116106107d257805f52600560205260405f20600160ff19825416179055600854680100000000000000008110156107be578060016107849201600855610a76565b81549060031b9083821b915f19901b19161790557f60a1c5c923dfc4992faf8e0ddcc76a3930a7324aa5f023c95ef48476737289555f80a2005b634e487b7160e01b5f52604160045260245ffd5b60405162461bcd60e51b815260206004820152601e60248201527f496e666572656e6365506f6f6c3a206669746e65737320746f6f206c6f7700006044820152606490fd5b60405162461bcd60e51b815260206004820152602260248201527f496e666572656e6365506f6f6c3a2067656e6f6d65206e6f74204445504c4f59604482015261115160f21b6064820152608490fd5b9150503d805f833e6108798183610aa2565b8101610160828203126105ce57606082015167ffffffffffffffff81116105ce57820181601f820112156105ce5780519067ffffffffffffffff82116107be576020808360051b93604051906108d183870183610aa2565b815201928201019283116105ce57602001905b82821061092257505050608081015163ffffffff8116036105ce57600260ff61091b60e061091460a08601610b10565b9401610b10565b9150610732565b81518152602091820191016108e4565b60405162461bcd60e51b815260206004820152601e60248201527f496e666572656e6365506f6f6c3a20616c726561647920696e20706f6f6c00006044820152606490fd5b346105ce575f3660031901126105ce576040518060206008549283815201809260085f527ff3f7a9fe364faab93b216da50a3214154f22a0a2b415b23a84c8169e8b636ee3905f5b818110610a1757505050816109d5910382610aa2565b604051918291602083019060208452518091526040830191905f5b8181106109fe575050500390f35b82518452859450602093840193909201916001016109f0565b82548452602090930192600192830192016109bf565b346105ce5760203660031901126105ce576004355f526005602052602060ff60405f2054166040519015158152f35b346105ce575f3660031901126105ce576020906004548152f35b600854811015610a8e5760085f5260205f2001905f90565b634e487b7160e01b5f52603260045260245ffd5b90601f8019910116810190811067ffffffffffffffff8211176107be57604052565b15610acb57565b60405162461bcd60e51b815260206004820152601860248201527f496e666572656e6365506f6f6c3a206e6f74206f776e657200000000000000006044820152606490fd5b519060ff821682036105ce57565b919082018092116105db5756fea2646970667358221220965e8ffa66eb38f04b561012ad0d27280a79615d121840646dc4afd90474f4e864736f6c634300081c0033",
  "linkReferences": {},
  "deployedLinkReferences": {}
}