{
  "_format": "hh-sol-artifact-1",
  "contractName": "GenomeDAO",
  "sourceName": "contracts/GenomeDAO.sol",
  "abi": [
    {
      "inputs": [
        {
          "internalType": "address",
          "name": "_genome",
          "type": "address"
        },
        {
          "internalType": "address",
          "name": "_evoClock",
          "type": "address"
        },
        {
          "internalType": "address",
          "name": "_genOps",
          "type": "address"
        },
        {
          "internalType": "uint256",
          "name": "_votingPeriod",
          "type": "uint256"
        },
        {
          "internalType": "uint256",
          "name": "_quorum",
          "type": "uint256"
        }
      ],
      "stateMutability": "nonpayable",
      "type": "constructor"
    },
    {
      "anonymous": false,
      "inputs": [
        {
          "indexed": true,
          "internalType": "uint256",
          "name": "id",
          "type": "uint256"
        },
        {
          "indexed": false,
          "internalType": "address",
          "name": "proposer",
          "type": "address"
        },
        {
          "indexed": false,
          "internalType": "enum GenomeDAO.ProposalType",
          "name": "pType",
          "type": "uint8"
        },
        {
          "indexed": false,
          "internalType": "uint256",
          "name": "value",
          "type": "uint256"
        }
      ],
      "name": "ProposalCreated",
      "type": "event"
    },
    {
      "anonymous": false,
      "inputs": [
        {
          "indexed": true,
          "internalType": "uint256",
          "name": "id",
          "type": "uint256"
        },
        {
          "indexed": false,
          "internalType": "bool",
          "name": "passed",
          "type": "bool"
        }
      ],
      "name": "ProposalExecuted",
      "type": "event"
    },
    {
      "anonymous": false,
      "inputs": [
        {
          "indexed": false,
          "internalType": "uint256",
          "name": "newQuorum",
          "type": "uint256"
        }
      ],
      "name": "QuorumUpdated",
      "type": "event"
    },
    {
      "anonymous": false,
      "inputs": [
        {
          "indexed": true,
          "internalType": "uint256",
          "name": "proposalId",
          "type": "uint256"
        },
        {
          "indexed": false,
          "internalType": "address",
          "name": "voter",
          "type": "address"
        },
        {
          "indexed": false,
          "internalType": "bool",
          "name": "support",
          "type": "bool"
        },
        {
          "indexed": false,
          "internalType": "uint256",
          "name": "weight",
          "type": "uint256"
        }
      ],
      "name": "VoteCast",
      "type": "event"
    },
    {
      "anonymous": false,
      "inputs": [
        {
          "indexed": false,
          "internalType": "uint256",
          "name": "newPeriod",
          "type": "uint256"
        }
      ],
      "name": "VotingPeriodUpdated",
      "type": "event"
    },
    {
      "inputs": [
        {
          "internalType": "bytes32",
          "name": "speciesId",
          "type": "bytes32"
        }
      ],
      "name": "addSpecies",
      "outputs": [],
      "stateMutability": "nonpayable",
      "type": "function"
    },
    {
      "inputs": [],
      "name": "evoClock",
      "outputs": [
        {
          "internalType": "address",
          "name": "",
          "type": "address"
        }
      ],
      "stateMutability": "view",
      "type": "function"
    },
    {
      "inputs": [
        {
          "internalType": "uint256",
          "name": "proposalId",
          "type": "uint256"
        }
      ],
      "name": "execute",
      "outputs": [],
      "stateMutability": "nonpayable",
      "type": "function"
    },
    {
      "inputs": [],
      "name": "genOps",
      "outputs": [
        {
          "internalType": "address",
          "name": "",
          "type": "address"
        }
      ],
      "stateMutability": "view",
      "type": "function"
    },
    {
      "inputs": [],
      "name": "genome",
      "outputs": [
        {
          "internalType": "address",
          "name": "",
          "type": "address"
        }
      ],
      "stateMutability": "view",
      "type": "function"
    },
    {
      "inputs": [
        {
          "internalType": "uint256",
          "name": "id",
          "type": "uint256"
        }
      ],
      "name": "getProposal",
      "outputs": [
        {
          "components": [
            {
              "internalType": "uint256",
              "name": "id",
              "type": "uint256"
            },
            {
              "internalType": "address",
              "name": "proposer",
              "type": "address"
            },
            {
              "internalType": "enum GenomeDAO.ProposalType",
              "name": "pType",
              "type": "uint8"
            },
            {
              "internalType": "uint256",
              "name": "value",
              "type": "uint256"
            },
            {
              "internalType": "string",
              "name": "description",
              "type": "string"
            },
            {
              "internalType": "uint256",
              "name": "forVotes",
              "type": "uint256"
            },
            {
              "internalType": "uint256",
              "name": "againstVotes",
              "type": "uint256"
            },
            {
              "internalType": "uint256",
              "name": "startBlock",
              "type": "uint256"
            },
            {
              "internalType": "uint256",
              "name": "endBlock",
              "type": "uint256"
            },
            {
              "internalType": "enum GenomeDAO.ProposalStatus",
              "name": "status",
              "type": "uint8"
            },
            {
              "internalType": "bool",
              "name": "executed",
              "type": "bool"
            }
          ],
          "internalType": "struct GenomeDAO.Proposal",
          "name": "",
          "type": "tuple"
        }
      ],
      "stateMutability": "view",
      "type": "function"
    },
    {
      "inputs": [
        {
          "internalType": "address",
          "name": "voter",
          "type": "address"
        }
      ],
      "name": "getVotingPower",
      "outputs": [
        {
          "internalType": "uint256",
          "name": "",
          "type": "uint256"
        }
      ],
      "stateMutability": "view",
      "type": "function"
    },
    {
      "inputs": [
        {
          "internalType": "uint256",
          "name": "",
          "type": "uint256"
        },
        {
          "internalType": "address",
          "name": "",
          "type": "address"
        }
      ],
      "name": "hasVoted",
      "outputs": [
        {
          "internalType": "bool",
          "name": "",
          "type": "bool"
        }
      ],
      "stateMutability": "view",
      "type": "function"
    },
    {
      "inputs": [
        {
          "internalType": "uint256",
          "name": "proposalId",
          "type": "uint256"
        }
      ],
      "name": "isVotingOpen",
      "outputs": [
        {
          "internalType": "bool",
          "name": "",
          "type": "bool"
        }
      ],
      "stateMutability": "view",
      "type": "function"
    },
    {
      "inputs": [],
      "name": "owner",
      "outputs": [
        {
          "internalType": "address",
          "name": "",
          "type": "address"
        }
      ],
      "stateMutability": "view",
      "type": "function"
    },
    {
      "inputs": [],
      "name": "proposalCount",
      "outputs": [
        {
          "internalType": "uint256",
          "name": "",
          "type": "uint256"
        }
      ],
      "stateMutability": "view",
      "type": "function"
    },
    {
      "inputs": [
        {
          "internalType": "uint256",
          "name": "",
          "type": "uint256"
        }
      ],
      "name": "proposals",
      "outputs": [
        {
          "internalType": "uint256",
          "name": "id",
          "type": "uint256"
        },
        {
          "internalType": "address",
          "name": "proposer",
          "type": "address"
        },
        {
          "internalType": "enum GenomeDAO.ProposalType",
          "name": "pType",
          "type": "uint8"
        },
        {
          "internalType": "uint256",
          "name": "value",
          "type": "uint256"
        },
        {
          "internalType": "string",
          "name": "description",
          "type": "string"
        },
        {
          "internalType": "uint256",
          "name": "forVotes",
          "type": "uint256"
        },
        {
          "internalType": "uint256",
          "name": "againstVotes",
          "type": "uint256"
        },
        {
          "internalType": "uint256",
          "name": "startBlock",
          "type": "uint256"
        },
        {
          "internalType": "uint256",
          "name": "endBlock",
          "type": "uint256"
        },
        {
          "internalType": "enum GenomeDAO.ProposalStatus",
          "name": "status",
          "type": "uint8"
        },
        {
          "internalType": "bool",
          "name": "executed",
          "type": "bool"
        }
      ],
      "stateMutability": "view",
      "type": "function"
    },
    {
      "inputs": [
        {
          "internalType": "enum GenomeDAO.ProposalType",
          "name": "pType",
          "type": "uint8"
        },
        {
          "internalType": "uint256",
          "name": "value",
          "type": "uint256"
        },
        {
          "internalType": "string",
          "name": "description",
          "type": "string"
        }
      ],
      "name": "propose",
      "outputs": [
        {
          "internalType": "uint256",
          "name": "",
          "type": "uint256"
        }
      ],
      "stateMutability": "nonpayable",
      "type": "function"
    },
    {
      "inputs": [],
      "name": "quorum",
      "outputs": [
        {
          "internalType": "uint256",
          "name": "",
          "type": "uint256"
        }
      ],
      "stateMutability": "view",
      "type": "function"
    },
    {
      "inputs": [
        {
          "internalType": "uint256",
          "name": "",
          "type": "uint256"
        }
      ],
      "name": "registeredSpecies",
      "outputs": [
        {
          "internalType": "bytes32",
          "name": "",
          "type": "bytes32"
        }
      ],
      "stateMutability": "view",
      "type": "function"
    },
    {
      "inputs": [
        {
          "internalType": "uint256",
          "name": "_quorum",
          "type": "uint256"
        }
      ],
      "name": "setQuorum",
      "outputs": [],
      "stateMutability": "nonpayable",
      "type": "function"
    },
    {
      "inputs": [
        {
          "internalType": "uint256",
          "name": "_period",
          "type": "uint256"
        }
      ],
      "name": "setVotingPeriod",
      "outputs": [],
      "stateMutability": "nonpayable",
      "type": "function"
    },
    {
      "inputs": [
        {
          "internalType": "uint256",
          "name": "proposalId",
          "type": "uint256"
        },
        {
          "internalType": "bool",
          "name": "support",
          "type": "bool"
        }
      ],
      "name": "vote",
      "outputs": [],
      "stateMutability": "nonpayable",
      "type": "function"
    },
    {
      "inputs": [],
      "name": "votingPeriod",
      "outputs": [
        {
          "internalType": "uint256",
          "name": "",
          "type": "uint256"
        }
      ],
      "stateMutability": "view",
      "type": "function"
    }
  ],
  "bytecode": "0x60803461038857601f61182d38819003918201601f19168301916001600160401b0383118484101761026c5780849260a094604052833981010312610388576100478161038c565b906100546020820161038c565b6100606040830161038c565b6060830151608090930151936001600160a01b0316918215610355576001600160a01b0316908115610320576001600160a01b03169182156102ed5783156102b35784156102805760018060a01b0319600254161760025560018060a01b0319600354161760035560018060a01b031960045416176004556007556008553360018060a01b031960055416176005556009546801000000000000000081101561026c576001810180600955811015610258577f9ac5a4a102fcf86b8026f9a09baaeaab4e5278c6be4f8faafe8e199b83f42ee09060095f5260205f2001556009546801000000000000000081101561026c576001810180600955811015610258577f2dc081a8d6d4714c79b5abd2e9b08c3a33b4ef1dcf946ef8b8cf6c495014f47b9060095f5260205f2001556009546801000000000000000081101561026c576001810180600955811015610258577f5a67173179db7bfaaf1def3a2fcefe75424bd0e66cefb682264091af8b4aad069060095f5260205f2001556009546801000000000000000081101561026c5760018101806009558110156102585760095f527fd08ac36f519ee359a2a193611e1643e0d2c9d4ad9631f683fccd3b4a13a5b7177f6e1540171b6c0c960b71a7020d9f60077f6af931a8bbf590da0223dacf75c7af9091015560405161148c90816103a18239f35b634e487b7160e01b5f52603260045260245ffd5b634e487b7160e01b5f52604160045260245ffd5b60405162461bcd60e51b815260206004820152600b60248201526a7a65726f2071756f72756d60a81b6044820152606490fd5b60405162461bcd60e51b81526020600482015260126024820152711e995c9bc81d9bdd1a5b99c81c195c9a5bd960721b6044820152606490fd5b60405162461bcd60e51b815260206004820152600b60248201526a7a65726f2067656e4f707360a81b6044820152606490fd5b60405162461bcd60e51b815260206004820152600d60248201526c7a65726f2065766f436c6f636b60981b6044820152606490fd5b60405162461bcd60e51b815260206004820152600b60248201526a7a65726f2067656e6f6d6560a81b6044820152606490fd5b5f80fd5b51906001600160a01b03821682036103885756fe60806040526004361015610011575f80fd5b5f5f3560e01c80621e434c14610f0f578063013cf08b14610e4057806302a251a314610e23578063074dbaa614610d355780631703a01814610d185780634385963214610cc4578063729d624c14610c605780638da5cb5b14610c38578063bb4d443614610c01578063c1ba4e5914610ba8578063c75119c11461087d578063c7f758a8146106da578063c9d27afe14610540578063d5ba042814610518578063da35c664146104fb578063ea0217cf146104a2578063ea3f651f1461047a578063ed5bb4fd146104525763fe0d94c1146100ea575f80fd5b3461037f57602036600319011261037f57600435805f525f60205260405f206008810190815460ff8160081c1661040d5760078201544311156103c85760ff811690600482101561038357610142610100921561119e565b61ff00191617825560048101546008548110159290836103ba575b50821561039757600160ff1982541617905560ff600182015460a01c16906006821015610383578491806102115750600260018060a01b0360045416910154813b156102025782916024839260405194859384926303185cf760e01b845260048401525af18015610206576101ed575b505060205f5160206114375f395f51905f52915b6040519015158152a280f35b816101f791610fc8565b61020257825f6101cd565b8280fd5b6040513d84823e3d90fd5b600181036102885750600260018060a01b0360035416910154813b15610202578291602483926040519485938492632a7753cb60e11b845260048401525af1801561020657610273575b505060205f5160206114375f395f51905f52916101e1565b8161027d91610fc8565b61020257825f61025b565b600281036102f2575060ff600260018060a01b0381541692015416813b1561020257829160448392604051948593849263bfce86b360e01b84526004840152605860248401525af180156102065761027357505060205f5160206114375f395f51905f52916101e1565b600391925014610314575b5060205f5160206114375f395f51905f52916101e1565b60ff600260018060a01b0381541692015416813b1561037f575f9160448392604051948593849263bfce86b360e01b8452602d600485015260248401525af1801561037457156102fd5761036b9193505f90610fc8565b5f9160206102fd565b6040513d5f823e3d90fd5b5f80fd5b634e487b7160e01b5f52602160045260245ffd5b805460ff19166002179055505f5160206114375f395f51905f52906020906101e1565b60058301541092505f61015d565b60405162461bcd60e51b815260206004820152601b60248201527f47656e6f6d6544414f3a20766f74696e67206e6f7420656e64656400000000006044820152606490fd5b60405162461bcd60e51b815260206004820152601b60248201527f47656e6f6d6544414f3a20616c726561647920657865637574656400000000006044820152606490fd5b3461037f575f36600319011261037f576004546040516001600160a01b039091168152602090f35b3461037f575f36600319011261037f576003546040516001600160a01b039091168152602090f35b3461037f57602036600319011261037f577f651c77f42613a075437aa794c44471e3abc3a661956a67aaee165bb7396974aa60206004356104ee60018060a01b036005541633146110e0565b80600755604051908152a1005b3461037f575f36600319011261037f576020600654604051908152f35b3461037f575f36600319011261037f576002546040516001600160a01b039091168152602090f35b3461037f57604036600319011261037f5760043560243580151580820361037f57825f525f60205260405f209060ff600883015416600481101561038357610588901561119e565b60078201544311610695575f84815260016020908152604080832033845290915290205460ff16610650577fcbdf6214089cba887ecbf35a0b6a734589959c9763342c756bb2a80ca2bc9f6e926060926105e1336111f6565b916105ed831515611123565b5f878152600160208181526040808420338552909152909120805460ff191690911790551561063b57600401610624828254611191565b90555b6040519133835260208301526040820152a2005b600501610649828254611191565b9055610627565b60405162461bcd60e51b815260206004820152601860248201527f47656e6f6d6544414f3a20616c726561647920766f74656400000000000000006044820152606490fd5b60405162461bcd60e51b815260206004820152601760248201527f47656e6f6d6544414f3a20766f74696e6720656e6465640000000000000000006044820152606490fd5b3461037f57602036600319011261037f575f6101406040516106fb81610fab565b828152826020820152826040820152826060820152606060808201528260a08201528260c08201528260e0820152826101008201528261012082015201526004355f525f6020526040805f2081519061075382610fab565b805482526001810154610870602084019360018060a01b038316855261078260ff8783019460a01c16846110c8565b6002840154936060820194855261079b60038201610fea565b946080830195865260048201549560a0840196875261084960058401549160c0860192835260068501549360e0870194855261082f60086007880154976101008a019889520154996101208901986107f660ff8d168b6110d4565b60ff61014082019c60081c1615158c528e519e8f9e8f926020845251602084015260018060a01b039051169101525160608d019061108a565b5160808b01525161016060a08b01526101808a0190611097565b965160c08901525160e08801525161010087015251610120860152516101408501906110bb565b5115156101608301520390f35b3461037f57606036600319011261037f57600435600681101561037f576044359067ffffffffffffffff821161037f573660238301121561037f5781600401359167ffffffffffffffff831161037f57366024848301011161037f576108ec6108e5336111f6565b1515611123565b6108f760065461116f565b908160065561090860075443611191565b9060405161091581610fab565b8381526020810192338452604082019261092f87856110c8565b5f6020898060246060880195813587526040519d8e61095787601f19601f8501160182610fc8565b5201838d01378a0101526080830197885260a083015f815260c08401905f825260e085019243845261010086019485526101208601975f89526101408701975f89528a5f525f60205260405f2097518855600188019160018060a01b039051168254915160068110156103835760ff60a01b9060a01b16916affffffffffffffffffffff60a81b1617179055516002860155600385019951998a5167ffffffffffffffff8111610b9457610a0b8254610f73565b601f8111610b4f575b506020601f8211600114610ae25781906008999a9b9c9d5f92610ad7575b50508160011b915f199060031b1c19161790555b5160048501555160058401555160068301555160078201550191516004811015610383578254915161ffff1990921660ff9091161790151560081b61ff001617905560405133815260209282917f89f2ccbe5ce8017189037c67b330b3c300aea4d3f98bf76108c6c8921dbf4ad99160609190610ac6908288019061108a565b6024356040820152a2604051908152f35b015190508d80610a32565b601f1982169c835f52815f209d5f5b818110610b3257509160089a9b9c9d9e91846001959410610b1a575b505050811b019055610a46565b01515f1960f88460031b161c191690558d8080610b0d565b919e8f60016020928684930151815501940192019e91929e610af1565b825f5260205f20601f830160051c81019160208410610b8a575b601f0160051c01905b818110610b7f5750610a14565b5f8155600101610b72565b9091508190610b69565b634e487b7160e01b5f52604160045260245ffd5b3461037f57602036600319011261037f577ff18f88786aae85a652aadb99a82462616489a33370c9bcc7b245906812ef7cd16020600435610bf460018060a01b036005541633146110e0565b80600855604051908152a1005b3461037f57602036600319011261037f576004356001600160a01b038116810361037f57610c306020916111f6565b604051908152f35b3461037f575f36600319011261037f576005546040516001600160a01b039091168152602090f35b3461037f57602036600319011261037f57610c8660018060a01b036005541633146110e0565b60095468010000000000000000811015610b9457806001610caa9201600955610f47565b81545f1960039290921b91821b191660043590911b179055005b3461037f57604036600319011261037f576024356001600160a01b038116810361037f576004355f52600160205260405f209060018060a01b03165f52602052602060ff60405f2054166040519015158152f35b3461037f575f36600319011261037f576020600854604051908152f35b3461037f57602036600319011261037f576004355f525f60205260405f20604051610d5f81610fab565b8154815260018201546001600160a01b0381166020830152610d8a9060a01c60ff16604083016110c8565b60028201546060820152610da060038301610fea565b6080820152600482015460a0820152600582015460c0820152600682015460e08201526008600783015492610100830193845201549061014060ff610120830193610ded828216866110d4565b60081c1615159101525190600482101561038357602091159081610e17575b506040519015158152f35b90505143111582610e0c565b3461037f575f36600319011261037f576020600754604051908152f35b3461037f57602036600319011261037f576004355f525f60205260405f20805460018201549160ff6002820154610e7960038401610fea565b926004810154936005820154610ed96006840154926008600786015495015495610ec16040519b8c9b8c5260018060a01b03811660208d01528960408d019160a01c1661108a565b60608a015261016060808a0152610160890190611097565b9560a088015260c087015260e0860152610100850152610eff61012085018383166110bb565b60081c1615156101408301520390f35b3461037f57602036600319011261037f5760043560095481101561037f57610f38602091610f47565b90549060031b1c604051908152f35b600954811015610f5f5760095f5260205f2001905f90565b634e487b7160e01b5f52603260045260245ffd5b90600182811c92168015610fa1575b6020831014610f8d57565b634e487b7160e01b5f52602260045260245ffd5b91607f1691610f82565b610160810190811067ffffffffffffffff821117610b9457604052565b90601f8019910116810190811067ffffffffffffffff821117610b9457604052565b9060405191825f825492610ffd84610f73565b80845293600181169081156110685750600114611024575b5061102292500383610fc8565b565b90505f9291925260205f20905f915b81831061104c575050906020611022928201015f611015565b6020919350806001915483858901015201910190918492611033565b90506020925061102294915060ff191682840152151560051b8201015f611015565b9060068210156103835752565b805180835260209291819084018484015e5f828201840152601f01601f1916010190565b9060048210156103835752565b60068210156103835752565b60048210156103835752565b156110e757565b60405162461bcd60e51b815260206004820152601460248201527323b2b737b6b2a220a79d103737ba1037bbb732b960611b6044820152606490fd5b1561112a57565b60405162461bcd60e51b815260206004820152601a60248201527f47656e6f6d6544414f3a206e6f20766f74696e6720706f7765720000000000006044820152606490fd5b5f19811461117d5760010190565b634e487b7160e01b5f52601160045260245ffd5b9190820180921161117d57565b156111a557565b60405162461bcd60e51b815260206004820152601560248201527447656e6f6d6544414f3a206e6f742061637469766560581b6044820152606490fd5b8051821015610f5f5760209160051b010190565b6002546009545f93926001600160a01b039092169184915b80831061121b5750505050565b611229839593969496610f47565b9054604051638cb2c86d60e01b815260039290921b1c6004820152925f846024818a5afa938415610374575f94611398575b505f5b84518110156113895761127181866111e2565b51604051906331a9108f60e11b825260048201526020816024818c5afa908115610374575f91611348575b506001600160a01b03858116911614806112d2575b6112be575b60010161125e565b946112ca60019161116f565b9590506112b6565b506112dd81866111e2565b51604051906382afd23b60e01b825260048201526020816024818c5afa908115610374575f9161130e575b506112b1565b90506020813d8211611340575b8161132860209383610fc8565b8101031261037f5751801515810361037f575f611308565b3d915061131b565b90506020813d8211611381575b8161136260209383610fc8565b8101031261037f57516001600160a01b038116810361037f575f61129c565b3d9150611355565b5093959394600101925061120e565b9093503d805f833e6113aa8183610fc8565b81019060208183031261037f5780519067ffffffffffffffff821161037f57019080601f8301121561037f5781519167ffffffffffffffff8311610b94578260051b90604051936113fe6020840186610fc8565b845260208085019282010192831161037f57602001905b82821061142657505050925f61125b565b815181526020918201910161141556fe948f4a9cd986f1118c3fbd459f7a22b23c0693e1ca3ef06a6a8be5aa7d39cc03a26469706673582212206f360238411f3a2e94c9612bcc807b45377fef7cdcb21e9702e32fd77c1f2d0f64736f6c634300081c0033",
  "linkReferences": {},
  "deployedLinkReferences": {}
}