{
  "_format": "hh-sol-artifact-1",
  "contractName": "MeshEscrow",
  "sourceName": "contracts/MeshEscrow.sol",
  "abi": [
    {
      "inputs": [],
      "stateMutability": "nonpayable",
      "type": "constructor"
    },
    {
      "anonymous": false,
      "inputs": [
        {
          "indexed": false,
          "internalType": "string",
          "name": "slot",
          "type": "string"
        },
        {
          "indexed": false,
          "internalType": "address",
          "name": "newAddress",
          "type": "address"
        }
      ],
      "name": "AddressUpdated",
      "type": "event"
    },
    {
      "anonymous": false,
      "inputs": [
        {
          "indexed": true,
          "internalType": "bytes32",
          "name": "dagRoot",
          "type": "bytes32"
        },
        {
          "indexed": false,
          "internalType": "uint256",
          "name": "totalAmount",
          "type": "uint256"
        }
      ],
      "name": "FundsLocked",
      "type": "event"
    },
    {
      "anonymous": false,
      "inputs": [
        {
          "indexed": true,
          "internalType": "bytes32",
          "name": "taskId",
          "type": "bytes32"
        },
        {
          "indexed": false,
          "internalType": "address",
          "name": "requester",
          "type": "address"
        },
        {
          "indexed": false,
          "internalType": "uint256",
          "name": "amount",
          "type": "uint256"
        }
      ],
      "name": "NodeRefunded",
      "type": "event"
    },
    {
      "anonymous": false,
      "inputs": [
        {
          "indexed": true,
          "internalType": "bytes32",
          "name": "taskId",
          "type": "bytes32"
        },
        {
          "indexed": false,
          "internalType": "address",
          "name": "agent",
          "type": "address"
        },
        {
          "indexed": false,
          "internalType": "uint256",
          "name": "amount",
          "type": "uint256"
        }
      ],
      "name": "NodeReleased",
      "type": "event"
    },
    {
      "inputs": [],
      "name": "dagRegistry",
      "outputs": [
        {
          "internalType": "address",
          "name": "",
          "type": "address"
        }
      ],
      "stateMutability": "view",
      "type": "function"
    },
    {
      "inputs": [
        {
          "internalType": "bytes32",
          "name": "taskId",
          "type": "bytes32"
        }
      ],
      "name": "getBudget",
      "outputs": [
        {
          "internalType": "uint256",
          "name": "",
          "type": "uint256"
        }
      ],
      "stateMutability": "view",
      "type": "function"
    },
    {
      "inputs": [
        {
          "internalType": "bytes32",
          "name": "taskId",
          "type": "bytes32"
        }
      ],
      "name": "isReleased",
      "outputs": [
        {
          "internalType": "bool",
          "name": "",
          "type": "bool"
        }
      ],
      "stateMutability": "view",
      "type": "function"
    },
    {
      "inputs": [
        {
          "internalType": "bytes32",
          "name": "dagRoot",
          "type": "bytes32"
        },
        {
          "internalType": "bytes32[]",
          "name": "taskIds",
          "type": "bytes32[]"
        },
        {
          "internalType": "uint256[]",
          "name": "budgets",
          "type": "uint256[]"
        },
        {
          "internalType": "address",
          "name": "requester",
          "type": "address"
        }
      ],
      "name": "lockFunds",
      "outputs": [],
      "stateMutability": "payable",
      "type": "function"
    },
    {
      "inputs": [
        {
          "internalType": "bytes32",
          "name": "",
          "type": "bytes32"
        }
      ],
      "name": "nodeBudgets",
      "outputs": [
        {
          "internalType": "uint256",
          "name": "",
          "type": "uint256"
        }
      ],
      "stateMutability": "view",
      "type": "function"
    },
    {
      "inputs": [],
      "name": "owner",
      "outputs": [
        {
          "internalType": "address",
          "name": "",
          "type": "address"
        }
      ],
      "stateMutability": "view",
      "type": "function"
    },
    {
      "inputs": [
        {
          "internalType": "bytes32",
          "name": "taskId",
          "type": "bytes32"
        }
      ],
      "name": "refundOnTimeout",
      "outputs": [],
      "stateMutability": "nonpayable",
      "type": "function"
    },
    {
      "inputs": [
        {
          "internalType": "bytes32",
          "name": "taskId",
          "type": "bytes32"
        },
        {
          "internalType": "address",
          "name": "agent",
          "type": "address"
        }
      ],
      "name": "release",
      "outputs": [],
      "stateMutability": "nonpayable",
      "type": "function"
    },
    {
      "inputs": [
        {
          "internalType": "bytes32",
          "name": "",
          "type": "bytes32"
        }
      ],
      "name": "released",
      "outputs": [
        {
          "internalType": "bool",
          "name": "",
          "type": "bool"
        }
      ],
      "stateMutability": "view",
      "type": "function"
    },
    {
      "inputs": [],
      "name": "revenueRouter",
      "outputs": [
        {
          "internalType": "address",
          "name": "",
          "type": "address"
        }
      ],
      "stateMutability": "view",
      "type": "function"
    },
    {
      "inputs": [
        {
          "internalType": "address",
          "name": "_dagRegistry",
          "type": "address"
        }
      ],
      "name": "setDagRegistry",
      "outputs": [],
      "stateMutability": "nonpayable",
      "type": "function"
    },
    {
      "inputs": [
        {
          "internalType": "address",
          "name": "_revenueRouter",
          "type": "address"
        }
      ],
      "name": "setRevenueRouter",
      "outputs": [],
      "stateMutability": "nonpayable",
      "type": "function"
    },
    {
      "inputs": [
        {
          "internalType": "address",
          "name": "_teeVerifier",
          "type": "address"
        }
      ],
      "name": "setTeeVerifier",
      "outputs": [],
      "stateMutability": "nonpayable",
      "type": "function"
    },
    {
      "inputs": [
        {
          "internalType": "bytes32",
          "name": "",
          "type": "bytes32"
        }
      ],
      "name": "taskRequester",
      "outputs": [
        {
          "internalType": "address",
          "name": "",
          "type": "address"
        }
      ],
      "stateMutability": "view",
      "type": "function"
    },
    {
      "inputs": [],
      "name": "teeVerifier",
      "outputs": [
        {
          "internalType": "address",
          "name": "",
          "type": "address"
        }
      ],
      "stateMutability": "view",
      "type": "function"
    },
    {
      "stateMutability": "payable",
      "type": "receive"
    }
  ],
  "bytecode": "0x60808060405234602757600680546001600160a01b03191633179055610b10908161002c8239f35b5f80fdfe6080604052600436101561001a575b3615610018575f80fd5b005b5f3560e01c8063016f7283146108465780631bbdcfd3146106575780632f5f0bbc14610625578063315fb594146105fd578063546887a3146101bb578063730fb986146104bd57806383ef84481461028a5780638da5cb5b146104955780638f11417a146102b9578063a6d68ecd1461028a578063b3b917d9146101e4578063c5dd78bc146101bb578063cda752ff14610193578063e88558121461016b5763eefd625a0361000e5734610167576020366003190112610167577f943e9d45a11aaae5d87503e3bc248665d9807856e5cf2bdb4a988bee4442278160806100ff6108ea565b61011460018060a01b03600654163314610931565b6001600160a01b0316610128811515610975565b806001600160601b0360a01b60035416176003556040519060408252600b60408301526a646167526567697374727960a81b60608301526020820152a1005b5f80fd5b34610167575f366003190112610167576005546040516001600160a01b039091168152602090f35b34610167575f366003190112610167576004546040516001600160a01b039091168152602090f35b34610167576020366003190112610167576004355f525f602052602060405f2054604051908152f35b34610167576020366003190112610167577f943e9d45a11aaae5d87503e3bc248665d9807856e5cf2bdb4a988bee4442278160806102206108ea565b61023560018060a01b03600654163314610931565b6001600160a01b0316610249811515610975565b806001600160601b0360a01b60055416176005556040519060408252600d60408301526c3932bb32b73ab2a937baba32b960991b60608301526020820152a1005b34610167576020366003190112610167576004355f526001602052602060ff60405f2054166040519015158152f35b60803660031901126101675760243567ffffffffffffffff8111610167576102e5903690600401610900565b60443567ffffffffffffffff811161016757610305903690600401610900565b90926064356001600160a01b0381169392908490036101675761033360018060a01b03600354163314610a6a565b80830361045057939291905f945f945b8386106103c75786803410610382576040519081527fe4ca6b67c60d054a7534ea716370d00f3e074e33fb008a92d45ebdb89caefcf0602060043592a2005b60405162461bcd60e51b815260206004820152601e60248201527f4d657368457363726f773a20696e73756666696369656e742066756e647300006044820152606490fd5b9091929394956103d8878484610ab6565b356103e4888787610ab6565b355f525f60205260405f20556103fb878686610ab6565b355f52600260205260405f20866001600160601b0360a01b825416179055610424878484610ab6565b35810180911161043c57956001019493929190610343565b634e487b7160e01b5f52601160045260245ffd5b60405162461bcd60e51b815260206004820152601b60248201527f4d657368457363726f773a206c656e677468206d69736d6174636800000000006044820152606490fd5b34610167575f366003190112610167576006546040516001600160a01b039091168152602090f35b34610167576020366003190112610167576004356104e660018060a01b03600354163314610a6a565b805f5260016020526104ff60ff60405f205416156109b0565b5f818152600160208181526040808420805460ff19169093179092558281528183205460029091529120546001600160a01b031690801561054081156109fc565b82156105b85781835f926105ae575b5f92839283928392f1156105a357604080516001600160a01b03909316835260208301919091527f37ed87ceb122d67e4816c2030acf146f89687fc937b4aa118d851df6d7442be69190819081015b0390a2005b6040513d5f823e3d90fd5b6108fc925061054f565b60405162461bcd60e51b815260206004820152601d60248201527f4d657368457363726f773a20756e6b6e6f776e207265717565737465720000006044820152606490fd5b34610167575f366003190112610167576003546040516001600160a01b039091168152602090f35b34610167576020366003190112610167576004355f526002602052602060018060a01b0360405f205416604051908152f35b34610167576040366003190112610167576004356024356001600160a01b038116808203610167576004546001600160a01b0316330361080157825f5260016020526106aa60ff60405f205416156109b0565b825f52600160205260405f20600160ff19825416179055825f525f6020525f806040812054926106db8415156109fc565b60018060a01b0360055416908460405160208101926303f4e57560e11b845260248201526024815261070e604482610a48565b51925af13d156107fc573d67ffffffffffffffff81116107e85760405190610740601f8201601f191660200183610a48565b81525f60203d92013e5b1561079457604080516001600160a01b03909316835260208301919091527f313f7f900684830db6bbc9f1e74a747afc2d4cb888472a195c0e7f943f805e2391908190810161059e565b60405162461bcd60e51b815260206004820152602660248201527f4d657368457363726f773a20726576656e756520726f757465722063616c6c2060448201526519985a5b195960d21b6064820152608490fd5b634e487b7160e01b5f52604160045260245ffd5b61074a565b60405162461bcd60e51b815260206004820152601c60248201527f4d657368457363726f773a206f6e6c79205445455665726966696572000000006044820152606490fd5b34610167576020366003190112610167577f943e9d45a11aaae5d87503e3bc248665d9807856e5cf2bdb4a988bee4442278160806108826108ea565b61089760018060a01b03600654163314610931565b6001600160a01b03166108ab811515610975565b806001600160601b0360a01b60045416176004556040519060408252600b60408301526a3a32b2ab32b934b334b2b960a91b60608301526020820152a1005b600435906001600160a01b038216820361016757565b9181601f840112156101675782359167ffffffffffffffff8311610167576020808501948460051b01011161016757565b1561093857565b60405162461bcd60e51b815260206004820152601560248201527426b2b9b422b9b1b937bb9d103737ba1037bbb732b960591b6044820152606490fd5b1561097c57565b60405162461bcd60e51b815260206004820152600c60248201526b7a65726f206164647265737360a01b6044820152606490fd5b156109b757565b60405162461bcd60e51b815260206004820152601b60248201527f4d657368457363726f773a20616c726561647920736574746c656400000000006044820152606490fd5b15610a0357565b60405162461bcd60e51b815260206004820152601760248201527f4d657368457363726f773a207a65726f206275646765740000000000000000006044820152606490fd5b90601f8019910116810190811067ffffffffffffffff8211176107e857604052565b15610a7157565b60405162461bcd60e51b815260206004820152601c60248201527f4d657368457363726f773a206f6e6c79204441475265676973747279000000006044820152606490fd5b9190811015610ac65760051b0190565b634e487b7160e01b5f52603260045260245ffdfea264697066735822122070a7cdd3d53427e01c805354720700d47da3bbe89606817cabfceb4270ef1eb464736f6c634300081c0033",
  "linkReferences": {},
  "deployedLinkReferences": {}
}