{
  "_format": "hh-sol-artifact-1",
  "contractName": "FitnessOracle",
  "sourceName": "contracts/FitnessOracle.sol",
  "abi": [
    {
      "inputs": [
        {
          "internalType": "address",
          "name": "_signer",
          "type": "address"
        },
        {
          "internalType": "bytes32",
          "name": "_mrEnclave",
          "type": "bytes32"
        }
      ],
      "stateMutability": "nonpayable",
      "type": "constructor"
    },
    {
      "anonymous": false,
      "inputs": [
        {
          "indexed": false,
          "internalType": "bytes32",
          "name": "newEnclave",
          "type": "bytes32"
        }
      ],
      "name": "EnclaveUpdated",
      "type": "event"
    },
    {
      "anonymous": false,
      "inputs": [
        {
          "indexed": false,
          "internalType": "uint256",
          "name": "newInterval",
          "type": "uint256"
        }
      ],
      "name": "EvalIntervalUpdated",
      "type": "event"
    },
    {
      "anonymous": false,
      "inputs": [
        {
          "indexed": true,
          "internalType": "uint256",
          "name": "genomeId",
          "type": "uint256"
        },
        {
          "indexed": false,
          "internalType": "uint256",
          "name": "blockNumber",
          "type": "uint256"
        }
      ],
      "name": "EvaluationRequested",
      "type": "event"
    },
    {
      "anonymous": false,
      "inputs": [
        {
          "indexed": true,
          "internalType": "uint256",
          "name": "genomeId",
          "type": "uint256"
        },
        {
          "indexed": false,
          "internalType": "uint8",
          "name": "score",
          "type": "uint8"
        },
        {
          "indexed": false,
          "internalType": "bytes32",
          "name": "benchmarkHash",
          "type": "bytes32"
        }
      ],
      "name": "FitnessSubmitted",
      "type": "event"
    },
    {
      "anonymous": false,
      "inputs": [
        {
          "indexed": false,
          "internalType": "address",
          "name": "genome",
          "type": "address"
        }
      ],
      "name": "GenomeSet",
      "type": "event"
    },
    {
      "anonymous": false,
      "inputs": [
        {
          "indexed": false,
          "internalType": "address",
          "name": "newSigner",
          "type": "address"
        }
      ],
      "name": "SignerUpdated",
      "type": "event"
    },
    {
      "inputs": [],
      "name": "MIN_EVAL_INTERVAL",
      "outputs": [
        {
          "internalType": "uint256",
          "name": "",
          "type": "uint256"
        }
      ],
      "stateMutability": "view",
      "type": "function"
    },
    {
      "inputs": [
        {
          "internalType": "uint256",
          "name": "genomeId",
          "type": "uint256"
        }
      ],
      "name": "blocksUntilNextEval",
      "outputs": [
        {
          "internalType": "uint256",
          "name": "",
          "type": "uint256"
        }
      ],
      "stateMutability": "view",
      "type": "function"
    },
    {
      "inputs": [],
      "name": "genome",
      "outputs": [
        {
          "internalType": "address",
          "name": "",
          "type": "address"
        }
      ],
      "stateMutability": "view",
      "type": "function"
    },
    {
      "inputs": [
        {
          "internalType": "uint256",
          "name": "genomeId",
          "type": "uint256"
        }
      ],
      "name": "getLastScore",
      "outputs": [
        {
          "internalType": "uint8",
          "name": "",
          "type": "uint8"
        }
      ],
      "stateMutability": "view",
      "type": "function"
    },
    {
      "inputs": [
        {
          "internalType": "uint256",
          "name": "",
          "type": "uint256"
        }
      ],
      "name": "lastEvalBlock",
      "outputs": [
        {
          "internalType": "uint256",
          "name": "",
          "type": "uint256"
        }
      ],
      "stateMutability": "view",
      "type": "function"
    },
    {
      "inputs": [
        {
          "internalType": "uint256",
          "name": "",
          "type": "uint256"
        }
      ],
      "name": "lastFitnessScore",
      "outputs": [
        {
          "internalType": "uint8",
          "name": "",
          "type": "uint8"
        }
      ],
      "stateMutability": "view",
      "type": "function"
    },
    {
      "inputs": [],
      "name": "owner",
      "outputs": [
        {
          "internalType": "address",
          "name": "",
          "type": "address"
        }
      ],
      "stateMutability": "view",
      "type": "function"
    },
    {
      "inputs": [
        {
          "internalType": "uint256",
          "name": "genomeId",
          "type": "uint256"
        }
      ],
      "name": "requestEvaluation",
      "outputs": [],
      "stateMutability": "nonpayable",
      "type": "function"
    },
    {
      "inputs": [
        {
          "internalType": "address",
          "name": "_genome",
          "type": "address"
        }
      ],
      "name": "setGenome",
      "outputs": [],
      "stateMutability": "nonpayable",
      "type": "function"
    },
    {
      "inputs": [
        {
          "internalType": "uint256",
          "name": "_interval",
          "type": "uint256"
        }
      ],
      "name": "setMinEvalInterval",
      "outputs": [],
      "stateMutability": "nonpayable",
      "type": "function"
    },
    {
      "inputs": [
        {
          "internalType": "uint256",
          "name": "genomeId",
          "type": "uint256"
        },
        {
          "internalType": "uint8",
          "name": "score",
          "type": "uint8"
        },
        {
          "internalType": "bytes32",
          "name": "benchmarkHash",
          "type": "bytes32"
        },
        {
          "internalType": "bytes",
          "name": "teeSignature",
          "type": "bytes"
        }
      ],
      "name": "submitFitness",
      "outputs": [],
      "stateMutability": "nonpayable",
      "type": "function"
    },
    {
      "inputs": [],
      "name": "trustedEnclave",
      "outputs": [
        {
          "internalType": "bytes32",
          "name": "",
          "type": "bytes32"
        }
      ],
      "stateMutability": "view",
      "type": "function"
    },
    {
      "inputs": [],
      "name": "trustedSigner",
      "outputs": [
        {
          "internalType": "address",
          "name": "",
          "type": "address"
        }
      ],
      "stateMutability": "view",
      "type": "function"
    },
    {
      "inputs": [
        {
          "internalType": "bytes32",
          "name": "_enclave",
          "type": "bytes32"
        }
      ],
      "name": "updateEnclave",
      "outputs": [],
      "stateMutability": "nonpayable",
      "type": "function"
    },
    {
      "inputs": [
        {
          "internalType": "address",
          "name": "_signer",
          "type": "address"
        }
      ],
      "name": "updateSigner",
      "outputs": [],
      "stateMutability": "nonpayable",
      "type": "function"
    }
  ],
  "bytecode": "0x60803460c357601f610b0f38819003918201601f19168301916001600160401b0383118484101760c757808492604094855283398101031260c35780516001600160a01b038116919082900360c35760200151906064600655801560905760018060a01b031960015416176001556002553360018060a01b03196003541617600355604051610a3390816100dc8239f35b60405162461bcd60e51b815260206004820152600b60248201526a3d32b9379039b4b3b732b960a91b6044820152606490fd5b5f80fd5b634e487b7160e01b5f52604160045260245ffdfe6080806040526004361015610012575f80fd5b5f905f3560e01c9081630dee5eed146108fc57508063249ec89f146108df5780632938f9c8146108c25780636292d6b3146105cf5780637097955d146108695780638da5cb5b1461084157806396e166a3146106b6578063a7ecd37e146105fc578063b1684e2d146105cf578063b7285b8b14610576578063bf8aa01714610236578063cd1699a31461017e578063d5ba042814610157578063f74d54801461012e5763fec1c28a146100c3575f80fd5b3461012b57602036600319011261012b57600435815260046020526100ef6040822054600654906109f0565b9043821161010457602091505b604051908152f35b43820391821161011757506020906100fc565b634e487b7160e01b81526011600452602490fd5b80fd5b503461012b578060031936011261012b576001546040516001600160a01b039091168152602090f35b503461012b578060031936011261012b57546040516001600160a01b039091168152602090f35b503461012b57602036600319011261012b576004356001600160a01b03811690819003610232576101ba60018060a01b03600354163314610922565b80156101ff5781546001600160a01b031916811782556040519081527f720d71cf816f9a42ec4ec9f213d37864f991441e41f553f5ec78193e71c072b690602090a180f35b60405162461bcd60e51b815260206004820152600b60248201526a7a65726f2067656e6f6d6560a81b6044820152606490fd5b5080fd5b50346104755760803660031901126104755760043560243560ff811690818103610475576044359060643567ffffffffffffffff811161047557366023820112156104755780600401359167ffffffffffffffff8311610475573660248484010111610475575f54604191906102b6906001600160a01b0316151561096e565b60025460405190602082019289845260ff60f81b9060f81b16604083015286848301526061820152606181526102ed6081826109ba565b51902060405160208101917f19457468657265756d205369676e6564204d6573736167653a0a3332000000008352603c820152603c815261032f605c826109ba565b51902092036105315760648101355f1a601b8110610510575b60ff1690601b82148015610506575b156104ca5760209260446080925f9460405193845286840152602481013560408401520135606082015282805260015afa1561046a575f516001546001600160a01b03908116911603610479575f838152600560205260408120805460ff191684179055546001600160a01b0316803b15610475575f809160446040518094819363c8fc0f1360e01b83528960048401528860248401525af1801561046a5761042f575b507ffff8a2322b46e2228bcf089cf54c0bb6383a8427e0801ea2235d0344aed3ae9e9160409182519182526020820152a280f35b6040919450916104605f7ffff8a2322b46e2228bcf089cf54c0bb6383a8427e0801ea2235d0344aed3ae9e946109ba565b5f949150916103fb565b6040513d5f823e3d90fd5b5f80fd5b60405162461bcd60e51b8152602060048201526024808201527f4669746e6573734f7261636c653a20696e76616c696420544545207369676e616044820152637475726560e01b6064820152608490fd5b60405162461bcd60e51b81526020600482015260146024820152732334ba3732b9b9a7b930b1b6329d103130b2103b60611b6044820152606490fd5b50601c8214610357565b601b0160ff811115610348575b634e487b7160e01b5f52601160045260245ffd5b60405162461bcd60e51b815260206004820152601d60248201527f4669746e6573734f7261636c653a2062616420736967206c656e6774680000006044820152606490fd5b34610475576020366003190112610475577f56c92997b56f34fe386495bcb9ddbc7b5abc445abc214cfc4813d1570de916db60206004356105c260018060a01b03600354163314610922565b80600655604051908152a1005b34610475576020366003190112610475576004355f526005602052602060ff60405f205416604051908152f35b34610475576020366003190112610475576004356001600160a01b038116908190036104755761063760018060a01b03600354163314610922565b8015610683576020817f5553331329228fbd4123164423717a4a7539f6dfa1c3279a923b98fd681a6c73926bffffffffffffffffffffffff60a01b6001541617600155604051908152a1005b60405162461bcd60e51b815260206004820152600b60248201526a3d32b9379039b4b3b732b960a91b6044820152606490fd5b34610475576020366003190112610475575f54600435906024906020906001600160a01b03166106e781151561096e565b604051928380926382afd23b60e01b82528660048301525afa90811561046a575f91610806575b50156107c257805f52600460205261072d60405f2054600654906109f0565b431061076d57805f5260046020524360405f20557fe611e4d1496aeffe90e2fe08625c87cc2042d6f4f4fc5b23feb115806e300aae6020604051438152a2005b60405162461bcd60e51b815260206004820152602760248201527f4669746e6573734f7261636c653a20746f6f20736f6f6e2073696e6365206c616044820152661cdd08195d985b60ca1b6064820152608490fd5b606460405162461bcd60e51b815260206004820152602060248201527f4669746e6573734f7261636c653a2067656e6f6d65206e6f74206163746976656044820152fd5b90506020813d602011610839575b81610821602093836109ba565b8101031261047557518015158103610475578261070e565b3d9150610814565b34610475575f366003190112610475576003546040516001600160a01b039091168152602090f35b34610475576020366003190112610475577f29eee120c0751af1e476bc3a9ee980ae7906e4afda08b3e097baab7eb5b1b4c960206004356108b560018060a01b03600354163314610922565b80600255604051908152a1005b34610475575f366003190112610475576020600254604051908152f35b34610475575f366003190112610475576020600654604051908152f35b34610475576020366003190112610475576020906004355f526004825260405f20548152f35b1561092957565b60405162461bcd60e51b815260206004820152601860248201527f4669746e6573734f7261636c653a206e6f74206f776e657200000000000000006044820152606490fd5b1561097557565b60405162461bcd60e51b815260206004820152601d60248201527f4669746e6573734f7261636c653a2067656e6f6d65206e6f74207365740000006044820152606490fd5b90601f8019910116810190811067ffffffffffffffff8211176109dc57604052565b634e487b7160e01b5f52604160045260245ffd5b9190820180921161051d5756fea2646970667358221220d773fc9b2406b49d81357e86453295545b64f5910c51f78fd0e5822a48605b0b64736f6c634300081c0033",
  "linkReferences": {},
  "deployedLinkReferences": {}
}