{
  "_format": "hh-sol-artifact-1",
  "contractName": "AgentRegistry",
  "sourceName": "contracts/AgentRegistry.sol",
  "abi": [
    {
      "inputs": [
        {
          "internalType": "address",
          "name": "_meshEscrow",
          "type": "address"
        },
        {
          "internalType": "address",
          "name": "_treasury",
          "type": "address"
        }
      ],
      "stateMutability": "nonpayable",
      "type": "constructor"
    },
    {
      "anonymous": false,
      "inputs": [
        {
          "indexed": true,
          "internalType": "address",
          "name": "agent",
          "type": "address"
        },
        {
          "indexed": false,
          "internalType": "uint256",
          "name": "stakeReturned",
          "type": "uint256"
        }
      ],
      "name": "AgentDeregistered",
      "type": "event"
    },
    {
      "anonymous": false,
      "inputs": [
        {
          "indexed": true,
          "internalType": "address",
          "name": "agent",
          "type": "address"
        },
        {
          "indexed": false,
          "internalType": "bytes32",
          "name": "agentId",
          "type": "bytes32"
        },
        {
          "indexed": false,
          "internalType": "uint256",
          "name": "stake",
          "type": "uint256"
        }
      ],
      "name": "AgentRegistered",
      "type": "event"
    },
    {
      "anonymous": false,
      "inputs": [
        {
          "indexed": true,
          "internalType": "address",
          "name": "agent",
          "type": "address"
        },
        {
          "indexed": false,
          "internalType": "uint256",
          "name": "penalty",
          "type": "uint256"
        }
      ],
      "name": "AgentSlashed",
      "type": "event"
    },
    {
      "anonymous": false,
      "inputs": [
        {
          "indexed": false,
          "internalType": "uint256",
          "name": "newMin",
          "type": "uint256"
        }
      ],
      "name": "MinStakeUpdated",
      "type": "event"
    },
    {
      "anonymous": false,
      "inputs": [
        {
          "indexed": true,
          "internalType": "address",
          "name": "agent",
          "type": "address"
        },
        {
          "indexed": false,
          "internalType": "uint256",
          "name": "newScore",
          "type": "uint256"
        }
      ],
      "name": "ReputationUpdated",
      "type": "event"
    },
    {
      "anonymous": false,
      "inputs": [
        {
          "indexed": false,
          "internalType": "address",
          "name": "teeVerifier",
          "type": "address"
        }
      ],
      "name": "TeeVerifierSet",
      "type": "event"
    },
    {
      "inputs": [],
      "name": "MIN_STAKE",
      "outputs": [
        {
          "internalType": "uint256",
          "name": "",
          "type": "uint256"
        }
      ],
      "stateMutability": "view",
      "type": "function"
    },
    {
      "inputs": [
        {
          "internalType": "bytes32",
          "name": "",
          "type": "bytes32"
        }
      ],
      "name": "agentIdToOwner",
      "outputs": [
        {
          "internalType": "address",
          "name": "",
          "type": "address"
        }
      ],
      "stateMutability": "view",
      "type": "function"
    },
    {
      "inputs": [
        {
          "internalType": "address",
          "name": "",
          "type": "address"
        }
      ],
      "name": "agents",
      "outputs": [
        {
          "internalType": "address",
          "name": "owner",
          "type": "address"
        },
        {
          "internalType": "bytes32",
          "name": "agentId",
          "type": "bytes32"
        },
        {
          "internalType": "uint256",
          "name": "stakedAmount",
          "type": "uint256"
        },
        {
          "internalType": "uint256",
          "name": "reputation",
          "type": "uint256"
        },
        {
          "internalType": "uint256",
          "name": "tasksCompleted",
          "type": "uint256"
        },
        {
          "internalType": "uint256",
          "name": "totalEarned",
          "type": "uint256"
        },
        {
          "internalType": "bool",
          "name": "slashed",
          "type": "bool"
        },
        {
          "internalType": "bool",
          "name": "active",
          "type": "bool"
        }
      ],
      "stateMutability": "view",
      "type": "function"
    },
    {
      "inputs": [],
      "name": "deregister",
      "outputs": [],
      "stateMutability": "nonpayable",
      "type": "function"
    },
    {
      "inputs": [
        {
          "internalType": "address",
          "name": "_agent",
          "type": "address"
        }
      ],
      "name": "getAgent",
      "outputs": [
        {
          "components": [
            {
              "internalType": "address",
              "name": "owner",
              "type": "address"
            },
            {
              "internalType": "bytes32",
              "name": "agentId",
              "type": "bytes32"
            },
            {
              "internalType": "uint256",
              "name": "stakedAmount",
              "type": "uint256"
            },
            {
              "internalType": "uint256",
              "name": "reputation",
              "type": "uint256"
            },
            {
              "internalType": "uint256",
              "name": "tasksCompleted",
              "type": "uint256"
            },
            {
              "internalType": "uint256",
              "name": "totalEarned",
              "type": "uint256"
            },
            {
              "internalType": "bool",
              "name": "slashed",
              "type": "bool"
            },
            {
              "internalType": "bool",
              "name": "active",
              "type": "bool"
            }
          ],
          "internalType": "struct AgentRegistry.Agent",
          "name": "",
          "type": "tuple"
        }
      ],
      "stateMutability": "view",
      "type": "function"
    },
    {
      "inputs": [
        {
          "internalType": "address",
          "name": "_agent",
          "type": "address"
        }
      ],
      "name": "getReputation",
      "outputs": [
        {
          "internalType": "uint256",
          "name": "",
          "type": "uint256"
        }
      ],
      "stateMutability": "view",
      "type": "function"
    },
    {
      "inputs": [
        {
          "internalType": "address",
          "name": "_agent",
          "type": "address"
        },
        {
          "internalType": "uint8",
          "name": "_score",
          "type": "uint8"
        }
      ],
      "name": "incrementReputation",
      "outputs": [],
      "stateMutability": "nonpayable",
      "type": "function"
    },
    {
      "inputs": [
        {
          "internalType": "address",
          "name": "_agent",
          "type": "address"
        }
      ],
      "name": "isRegistered",
      "outputs": [
        {
          "internalType": "bool",
          "name": "",
          "type": "bool"
        }
      ],
      "stateMutability": "view",
      "type": "function"
    },
    {
      "inputs": [],
      "name": "meshEscrow",
      "outputs": [
        {
          "internalType": "address",
          "name": "",
          "type": "address"
        }
      ],
      "stateMutability": "view",
      "type": "function"
    },
    {
      "inputs": [],
      "name": "owner",
      "outputs": [
        {
          "internalType": "address",
          "name": "",
          "type": "address"
        }
      ],
      "stateMutability": "view",
      "type": "function"
    },
    {
      "inputs": [
        {
          "internalType": "bytes32",
          "name": "_agentId",
          "type": "bytes32"
        }
      ],
      "name": "register",
      "outputs": [],
      "stateMutability": "payable",
      "type": "function"
    },
    {
      "inputs": [
        {
          "internalType": "address",
          "name": "",
          "type": "address"
        }
      ],
      "name": "registered",
      "outputs": [
        {
          "internalType": "bool",
          "name": "",
          "type": "bool"
        }
      ],
      "stateMutability": "view",
      "type": "function"
    },
    {
      "inputs": [
        {
          "internalType": "uint256",
          "name": "_min",
          "type": "uint256"
        }
      ],
      "name": "setMinStake",
      "outputs": [],
      "stateMutability": "nonpayable",
      "type": "function"
    },
    {
      "inputs": [
        {
          "internalType": "address",
          "name": "_teeVerifier",
          "type": "address"
        }
      ],
      "name": "setTeeVerifier",
      "outputs": [],
      "stateMutability": "nonpayable",
      "type": "function"
    },
    {
      "inputs": [
        {
          "internalType": "address",
          "name": "_agent",
          "type": "address"
        }
      ],
      "name": "slash",
      "outputs": [],
      "stateMutability": "nonpayable",
      "type": "function"
    },
    {
      "inputs": [],
      "name": "teeVerifier",
      "outputs": [
        {
          "internalType": "address",
          "name": "",
          "type": "address"
        }
      ],
      "stateMutability": "view",
      "type": "function"
    },
    {
      "inputs": [],
      "name": "treasury",
      "outputs": [
        {
          "internalType": "address",
          "name": "",
          "type": "address"
        }
      ],
      "stateMutability": "view",
      "type": "function"
    }
  ],
  "bytecode": "0x60803461012657601f610db538819003918201601f19168301916001600160401b0383118484101761012a57808492604094855283398101031261012657610052602061004b8361013e565b920161013e565b68056bc75e2d631000006003556001600160a01b039091169081156100f3576001600160a01b03169081156100be57600480546001600160a01b0319908116929092179055600680548216929092179091556007805490911633179055604051610c6290816101538239f35b60405162461bcd60e51b815260206004820152600d60248201526c7a65726f20747265617375727960981b6044820152606490fd5b60405162461bcd60e51b815260206004820152600b60248201526a7a65726f20657363726f7760a81b6044820152606490fd5b5f80fd5b634e487b7160e01b5f52604160045260245ffd5b51906001600160a01b03821682036101265756fe60806040526004361015610011575f80fd5b5f3560e01c8063016f728314610a7e5780631200b65b1461096757806361d027b31461093f5780638c80fd90146108e65780638da5cb5b146108be5780639c89a0e214610884578063a141ea3414610852578063aff5edb1146106e6578063b2dd5c07146106a9578063c3c5a547146106a9578063c96be4cb14610530578063cb1c2b5c14610513578063cda752ff146104eb578063e1fa8e84146102a0578063f53a010114610278578063fb3551ff1461016b5763fd66091e146100d4575f80fd5b34610167576020366003190112610167576001600160a01b036100f5610b31565b165f525f60205261010060405f2060ff60018060a01b0382541691600181015490600281015460038201546004830154916006600585015494015494604051978852602088015260408701526060860152608085015260a0840152818116151560c084015260081c16151560e0820152f35b5f80fd5b3461016757602036600319011261016757610184610b31565b5f60e061018f610bf7565b8281528260208201528260408201528260608201528260808201528260a08201528260c0820152015260018060a01b03165f525f60205261010060405f206101d5610bf7565b9060018060a01b03815416918281526001820154916020820192835260028101546040830190815260038201546060840190815260048301549160808501928352600660058501549460a0870195865201549560ff60e060c0880197828a1615158952019760081c16151587526040519788525160208801525160408701525160608601525160808501525160a084015251151560c083015251151560e0820152f35b34610167575f366003190112610167576004546040516001600160a01b039091168152602090f35b602036600319011261016757600435335f52600160205260ff60405f20541661049c576003543410610457575f818152600260205260409020546001600160a01b0316610412576102ef610bf7565b3381526020810182815260066040830192348452606081016101f48152608082015f815260a08301915f835260c08401965f885260e085019660018852335f525f60205260405f209560018060a01b039060018060a01b03905116166001600160601b0360a01b875416178655516001860155516002850155516003840155516004830155516005820155019151151560ff8019845416911617825551151561ff0082549160081b169061ff001916179055335f52600160205260405f20600160ff19825416179055805f52600260205260405f2060018060a01b0333166001600160601b0360a01b8254161790556040519081523460208201527f4972e8ca1eb9b0cd0d64f25278a998f0f7dec1914db16e87cab22d838778363460403392a2005b60405162461bcd60e51b815260206004820152601c60248201527f4167656e7452656769737472793a206167656e7449642074616b656e000000006044820152606490fd5b60405162461bcd60e51b815260206004820152601c60248201527f4167656e7452656769737472793a207374616b6520746f6f206c6f77000000006044820152606490fd5b60405162461bcd60e51b815260206004820152602160248201527f4167656e7452656769737472793a20616c7265616479207265676973746572656044820152601960fa1b6064820152608490fd5b34610167575f366003190112610167576005546040516001600160a01b039091168152602090f35b34610167575f366003190112610167576020600354604051908152f35b3461016757602036600319011261016757610549610b31565b6004546001600160a01b031633148015610695575b61056790610b93565b6001600160a01b03165f818152602081905260409020600681018054600881901c60ff16156106505760028301805493600a85049485810390811161063157600392550190815491603283115f1461064557603119830192831161063157600192905b5560ff19161790555f8080808460018060a01b0360065416828215610628575bf11561061d5760207f3d701249c8b563e5444e922ce16ba533ebfb6ef4df5228ffc7127dc9b817032d91604051908152a2005b6040513d5f823e3d90fd5b506108fc6105ea565b634e487b7160e01b5f52601160045260245ffd5b600192505f906105ca565b60405162461bcd60e51b815260206004820152601f60248201527f4167656e7452656769737472793a206167656e74206e6f7420616374697665006044820152606490fd5b506005546001600160a01b0316331461055e565b34610167576020366003190112610167576001600160a01b036106ca610b31565b165f526001602052602060ff60405f2054166040519015158152f35b34610167575f36600319011261016757335f52600160205260ff60405f2054161561080d57335f525f60205260ff600660405f20015460081c16156107c857335f525f60205260405f20600160028201915f835493556006810161ff0019815416905501545f52600260205260405f206001600160601b0360a01b8154169055335f52600160205260405f2060ff198154169055805f81156107bf575b5f80809381933390f11561061d576040519081527fa92443b93ff32c89ebda9dc8b41cd2259954ba01758b65fccce6bbebe707753c60203392a2005b506108fc610783565b60405162461bcd60e51b815260206004820152601f60248201527f4167656e7452656769737472793a20616c726561647920696e616374697665006044820152606490fd5b60405162461bcd60e51b815260206004820152601d60248201527f4167656e7452656769737472793a206e6f7420726567697374657265640000006044820152606490fd5b34610167576020366003190112610167576004355f526002602052602060018060a01b0360405f205416604051908152f35b34610167576020366003190112610167576001600160a01b036108a5610b31565b165f525f6020526020600360405f200154604051908152f35b34610167575f366003190112610167576007546040516001600160a01b039091168152602090f35b34610167576020366003190112610167577f47ab46f2c8d4258304a2f5551c1cbdb6981be49631365d1ba7191288a73f39ef602060043561093260018060a01b03600754163314610b47565b80600355604051908152a1005b34610167575f366003190112610167576006546040516001600160a01b039091168152602090f35b3461016757604036600319011261016757610980610b31565b6024359060ff8216809203610167576004546001600160a01b031633148015610a6a575b6109ad90610b93565b6001600160a01b03165f81815260208190526040902090916055811115610a4c5750600460ff600a5b169160038101928354906103e86109ed8284610bea565b1115610a3c5750506103e880935b5501805490915f198214610631577ffc577563f1b9a0461e24abef1e1fcc0d33d3d881f20b5df6dda59de4aae2c821926001602093019055604051908152a2005b610a4591610bea565b80936109fb565b60461015610a5f57600460ff60056109d6565b600460ff60026109d6565b506005546001600160a01b031633146109a4565b3461016757602036600319011261016757610a97610b31565b610aac60018060a01b03600754163314610b47565b6001600160a01b03168015610afc576020817f99422856f4a571d48b77a2845d7c0e43e0b2c6d46cf7149ece07581dbfd9a302926001600160601b0360a01b6005541617600555604051908152a1005b60405162461bcd60e51b815260206004820152600d60248201526c3d32b937903b32b934b334b2b960991b6044820152606490fd5b600435906001600160a01b038216820361016757565b15610b4e57565b60405162461bcd60e51b815260206004820152601860248201527f4167656e7452656769737472793a206e6f74206f776e657200000000000000006044820152606490fd5b15610b9a57565b60405162461bcd60e51b815260206004820152602260248201527f4167656e7452656769737472793a20756e617574686f72697a65642063616c6c60448201526132b960f11b6064820152608490fd5b9190820180921161063157565b60405190610100820182811067ffffffffffffffff821117610c1857604052565b634e487b7160e01b5f52604160045260245ffdfea264697066735822122044a30e61380e9114103abe3d020bfb17d2eb328fb52d9dd6f0ceb752d54ad76264736f6c634300081c0033",
  "linkReferences": {},
  "deployedLinkReferences": {}
}