{
  "_format": "hh-sol-artifact-1",
  "contractName": "GenOps",
  "sourceName": "contracts/GenOps.sol",
  "abi": [
    {
      "inputs": [
        {
          "internalType": "address",
          "name": "_evoClock",
          "type": "address"
        },
        {
          "internalType": "address",
          "name": "_treasury",
          "type": "address"
        },
        {
          "internalType": "uint256",
          "name": "_breedingFee",
          "type": "uint256"
        },
        {
          "internalType": "uint256",
          "name": "_mutationRate",
          "type": "uint256"
        }
      ],
      "stateMutability": "nonpayable",
      "type": "constructor"
    },
    {
      "anonymous": false,
      "inputs": [
        {
          "indexed": false,
          "internalType": "uint256",
          "name": "newFee",
          "type": "uint256"
        }
      ],
      "name": "BreedingFeeUpdated",
      "type": "event"
    },
    {
      "anonymous": false,
      "inputs": [
        {
          "indexed": false,
          "internalType": "uint256",
          "name": "parentA",
          "type": "uint256"
        },
        {
          "indexed": false,
          "internalType": "uint256",
          "name": "parentB",
          "type": "uint256"
        },
        {
          "indexed": false,
          "internalType": "uint256",
          "name": "childId",
          "type": "uint256"
        },
        {
          "indexed": false,
          "internalType": "uint256",
          "name": "alpha",
          "type": "uint256"
        },
        {
          "indexed": false,
          "internalType": "bytes32",
          "name": "childAdapterRoot",
          "type": "bytes32"
        }
      ],
      "name": "CrossoverTriggered",
      "type": "event"
    },
    {
      "anonymous": false,
      "inputs": [
        {
          "indexed": false,
          "internalType": "address",
          "name": "genome",
          "type": "address"
        }
      ],
      "name": "GenomeSet",
      "type": "event"
    },
    {
      "anonymous": false,
      "inputs": [
        {
          "indexed": false,
          "internalType": "uint256",
          "name": "newRate",
          "type": "uint256"
        }
      ],
      "name": "MutationRateUpdated",
      "type": "event"
    },
    {
      "anonymous": false,
      "inputs": [
        {
          "indexed": true,
          "internalType": "uint256",
          "name": "genomeId",
          "type": "uint256"
        },
        {
          "indexed": false,
          "internalType": "bytes32",
          "name": "newAdapterRoot",
          "type": "bytes32"
        }
      ],
      "name": "MutationTriggered",
      "type": "event"
    },
    {
      "anonymous": false,
      "inputs": [
        {
          "indexed": false,
          "internalType": "uint256",
          "name": "generation",
          "type": "uint256"
        },
        {
          "indexed": false,
          "internalType": "uint256",
          "name": "selectedCount",
          "type": "uint256"
        }
      ],
      "name": "SelectionRun",
      "type": "event"
    },
    {
      "inputs": [],
      "name": "MAX_BREED_COUNT",
      "outputs": [
        {
          "internalType": "uint256",
          "name": "",
          "type": "uint256"
        }
      ],
      "stateMutability": "view",
      "type": "function"
    },
    {
      "inputs": [],
      "name": "breedingFee",
      "outputs": [
        {
          "internalType": "uint256",
          "name": "",
          "type": "uint256"
        }
      ],
      "stateMutability": "view",
      "type": "function"
    },
    {
      "inputs": [
        {
          "internalType": "uint256",
          "name": "genomeId",
          "type": "uint256"
        }
      ],
      "name": "canBreed",
      "outputs": [
        {
          "internalType": "bool",
          "name": "",
          "type": "bool"
        }
      ],
      "stateMutability": "view",
      "type": "function"
    },
    {
      "inputs": [
        {
          "internalType": "uint256",
          "name": "parentA",
          "type": "uint256"
        },
        {
          "internalType": "uint256",
          "name": "parentB",
          "type": "uint256"
        },
        {
          "internalType": "bytes32",
          "name": "childAdapterRoot",
          "type": "bytes32"
        },
        {
          "internalType": "bytes32",
          "name": "childLineageRoot",
          "type": "bytes32"
        },
        {
          "internalType": "uint256",
          "name": "alpha",
          "type": "uint256"
        }
      ],
      "name": "crossover",
      "outputs": [
        {
          "internalType": "uint256",
          "name": "childId",
          "type": "uint256"
        }
      ],
      "stateMutability": "payable",
      "type": "function"
    },
    {
      "inputs": [
        {
          "internalType": "uint256",
          "name": "",
          "type": "uint256"
        }
      ],
      "name": "crossoverCount",
      "outputs": [
        {
          "internalType": "uint256",
          "name": "",
          "type": "uint256"
        }
      ],
      "stateMutability": "view",
      "type": "function"
    },
    {
      "inputs": [],
      "name": "evoClock",
      "outputs": [
        {
          "internalType": "address",
          "name": "",
          "type": "address"
        }
      ],
      "stateMutability": "view",
      "type": "function"
    },
    {
      "inputs": [],
      "name": "genome",
      "outputs": [
        {
          "internalType": "address",
          "name": "",
          "type": "address"
        }
      ],
      "stateMutability": "view",
      "type": "function"
    },
    {
      "inputs": [
        {
          "internalType": "uint256",
          "name": "genomeId",
          "type": "uint256"
        }
      ],
      "name": "getBreedCount",
      "outputs": [
        {
          "internalType": "uint256",
          "name": "",
          "type": "uint256"
        }
      ],
      "stateMutability": "view",
      "type": "function"
    },
    {
      "inputs": [
        {
          "internalType": "uint256",
          "name": "",
          "type": "uint256"
        }
      ],
      "name": "lastMutatedAt",
      "outputs": [
        {
          "internalType": "uint256",
          "name": "",
          "type": "uint256"
        }
      ],
      "stateMutability": "view",
      "type": "function"
    },
    {
      "inputs": [
        {
          "internalType": "uint256",
          "name": "genomeId",
          "type": "uint256"
        },
        {
          "internalType": "bytes32",
          "name": "newAdapterRoot",
          "type": "bytes32"
        }
      ],
      "name": "mutate",
      "outputs": [],
      "stateMutability": "nonpayable",
      "type": "function"
    },
    {
      "inputs": [],
      "name": "mutationRate",
      "outputs": [
        {
          "internalType": "uint256",
          "name": "",
          "type": "uint256"
        }
      ],
      "stateMutability": "view",
      "type": "function"
    },
    {
      "inputs": [],
      "name": "owner",
      "outputs": [
        {
          "internalType": "address",
          "name": "",
          "type": "address"
        }
      ],
      "stateMutability": "view",
      "type": "function"
    },
    {
      "inputs": [
        {
          "internalType": "uint256",
          "name": "generation",
          "type": "uint256"
        }
      ],
      "name": "runEpoch",
      "outputs": [],
      "stateMutability": "nonpayable",
      "type": "function"
    },
    {
      "inputs": [
        {
          "internalType": "uint256",
          "name": "_fee",
          "type": "uint256"
        }
      ],
      "name": "setBreedingFee",
      "outputs": [],
      "stateMutability": "nonpayable",
      "type": "function"
    },
    {
      "inputs": [
        {
          "internalType": "address",
          "name": "_genome",
          "type": "address"
        }
      ],
      "name": "setGenome",
      "outputs": [],
      "stateMutability": "nonpayable",
      "type": "function"
    },
    {
      "inputs": [
        {
          "internalType": "uint256",
          "name": "_max",
          "type": "uint256"
        }
      ],
      "name": "setMaxBreedCount",
      "outputs": [],
      "stateMutability": "nonpayable",
      "type": "function"
    },
    {
      "inputs": [
        {
          "internalType": "uint256",
          "name": "_rate",
          "type": "uint256"
        }
      ],
      "name": "setMutationRate",
      "outputs": [],
      "stateMutability": "nonpayable",
      "type": "function"
    },
    {
      "inputs": [],
      "name": "treasury",
      "outputs": [
        {
          "internalType": "address",
          "name": "",
          "type": "address"
        }
      ],
      "stateMutability": "view",
      "type": "function"
    }
  ],
  "bytecode": "0x6080346100fb57601f610ce638819003918201601f19168301916001600160401b038311848410176100ff578084926080946040528339810103126100fb5761004781610113565b9061005460208201610113565b6040820151606092909201516005600855926001600160a01b039091169081156100c65760018060a01b031660018060a01b0319600154161760015560018060a01b031960025416176002556004556005553360018060a01b03196003541617600355604051610bbe90816101288239f35b60405162461bcd60e51b815260206004820152600d60248201526c7a65726f20747265617375727960981b6044820152606490fd5b5f80fd5b634e487b7160e01b5f52604160045260245ffd5b51906001600160a01b03821682036100fb5756fe60806040526004361015610011575f80fd5b5f3560e01c806303185cf7146109f557806306e9f0a1146109cb57806324c75aa9146107c35780634574dea51461097257806361d027b31461094a57806362afeee1146108385780637050a17d1461081b57806376625730146107ed5780637673a7a7146107c3578063841326fc146107a65780638626a8ac1461070e5780638da5cb5b146106e6578063c69cd09d146106c9578063cd1699a314610611578063d5ba0428146105ea578063e485c04c1461054f578063ea3f651f146105275763ff5feb28146100df575f80fd5b60a03660031901126102d7575f54604435906024359060043590608435906001600160a01b0316610111811515610ad3565b60045434106104d8576064821161049357838314610458576040516382afd23b60e01b815260048101849052602081602481855afa9081156102e3575f91610439575b50156103f4576020602491604051928380926382afd23b60e01b82528860048301525afa9081156102e3575f916103c5575b501561038057815f52600760205260405f20546008548091101561033c57835f52600760205260405f205410156102f857815f52600760205260405f206101cd8154610b66565b9055825f52600760205260405f206101e58154610b66565b90555f80808060018060a01b0360025416819034156102ee575b3491f1156102e3575f92602060018060a01b0385541660a46040518097819362a7975760e41b83528860048401528660248401528a604484015260643560648401528760848401525af19384156102e3575f946102a4575b509160209460a0927feb2d30731643958aee56cec872995f20d8a34839d01671bf5b3f4d93c66fbc3d946040519384528784015285604084015260608301526080820152a1604051908152f35b91929093506020823d6020116102db575b816102c260209383610b18565b810103126102d7579051929091906020610257565b5f80fd5b3d91506102b5565b6040513d5f823e3d90fd5b6108fc91506101ff565b606460405162461bcd60e51b815260206004820152602060248201527f47656e4f70733a20706172656e7442206f766572206272656564206c696d69746044820152fd5b606460405162461bcd60e51b815260206004820152602060248201527f47656e4f70733a20706172656e7441206f766572206272656564206c696d69746044820152fd5b60405162461bcd60e51b815260206004820152601a60248201527f47656e4f70733a20706172656e7442206e6f74206163746976650000000000006044820152606490fd5b6103e7915060203d6020116103ed575b6103df8183610b18565b810190610b4e565b5f610186565b503d6103d5565b60405162461bcd60e51b815260206004820152601a60248201527f47656e4f70733a20706172656e7441206e6f74206163746976650000000000006044820152606490fd5b610452915060203d6020116103ed576103df8183610b18565b5f610154565b60405162461bcd60e51b815260206004820152601360248201527211d95b93dc1cce881cd85b59481c185c995b9d606a1b6044820152606490fd5b60405162461bcd60e51b815260206004820152601a60248201527f47656e4f70733a20616c706861206f7574206f662072616e67650000000000006044820152606490fd5b60405162461bcd60e51b815260206004820152602160248201527f47656e4f70733a20696e73756666696369656e74206272656564696e672066656044820152606560f81b6064820152608490fd5b346102d7575f3660031901126102d7576001546040516001600160a01b039091168152602090f35b346102d75760203660031901126102d7576001546001600160a01b031633036105a5577fb029058480d35a157986009a17f239f5511166aef43a98ccc11c9a26bca592e46040805160043581525f6020820152a1005b60405162461bcd60e51b815260206004820152601b60248201527f47656e4f70733a206f6e6c792045766f6c7574696f6e436c6f636b00000000006044820152606490fd5b346102d7575f3660031901126102d7575f546040516001600160a01b039091168152602090f35b346102d75760203660031901126102d7576004356001600160a01b038116908190036102d75761064c60018060a01b03600354163314610a93565b8015610696576020817f720d71cf816f9a42ec4ec9f213d37864f991441e41f553f5ec78193e71c072b6926bffffffffffffffffffffffff60a01b5f5416175f55604051908152a1005b60405162461bcd60e51b815260206004820152600b60248201526a7a65726f2067656e6f6d6560a81b6044820152606490fd5b346102d7575f3660031901126102d7576020600454604051908152f35b346102d7575f3660031901126102d7576003546040516001600160a01b039091168152602090f35b346102d75760203660031901126102d757600435805f52600760205260405f20546008541180610746575b6020906040519015158152f35b505f546040516382afd23b60e01b81526004810192909252602090829060249082906001600160a01b03165afa80156102e3576020915f91610789575b50610739565b6107a09150823d84116103ed576103df8183610b18565b82610783565b346102d7575f3660031901126102d7576020600554604051908152f35b346102d75760203660031901126102d7576004355f526007602052602060405f2054604051908152f35b346102d75760203660031901126102d75761081360018060a01b03600354163314610a93565b600435600855005b346102d7575f3660031901126102d7576020600854604051908152f35b346102d75760403660031901126102d75760043561086160018060a01b03600354163314610a93565b5f546024906020906001600160a01b031661087d811515610ad3565b604051928380926382afd23b60e01b82528660048301525afa9081156102e3575f9161092b575b50156108e657805f5260066020524360405f20557f689df2a748d1ff20701fbf71743a968627e4b01931f05abbabb40716d361bbda60206040516024358152a2005b60405162461bcd60e51b815260206004820152601960248201527f47656e4f70733a2067656e6f6d65206e6f7420616374697665000000000000006044820152606490fd5b610944915060203d6020116103ed576103df8183610b18565b826108a4565b346102d7575f3660031901126102d7576002546040516001600160a01b039091168152602090f35b346102d75760203660031901126102d7577f38b792a19d3835eae8296577bfd206723b40c16bde4694bf75d266af59c0918460206004356109be60018060a01b03600354163314610a93565b80600455604051908152a1005b346102d75760203660031901126102d7576004355f526006602052602060405f2054604051908152f35b346102d75760203660031901126102d757600435610a1e60018060a01b03600354163314610a93565b6127108111610a58576020817fe3d5a3edcda3c3c8bd17dfad4976e9ee4a67c78509dccfc8a1c38b97b66354d592600555604051908152a1005b60405162461bcd60e51b815260206004820152601360248201527247656e4f70733a2072617465203e203130302560681b6044820152606490fd5b15610a9a57565b60405162461bcd60e51b815260206004820152601160248201527023b2b727b8399d103737ba1037bbb732b960791b6044820152606490fd5b15610ada57565b60405162461bcd60e51b815260206004820152601660248201527511d95b93dc1cce8819d95b9bdb59481b9bdd081cd95d60521b6044820152606490fd5b90601f8019910116810190811067ffffffffffffffff821117610b3a57604052565b634e487b7160e01b5f52604160045260245ffd5b908160209103126102d7575180151581036102d75790565b5f198114610b745760010190565b634e487b7160e01b5f52601160045260245ffdfea264697066735822122066d75a65190a91b954c41a51ad9fc3d872d3634459d90d0e45bb00a16d11f66564736f6c634300081c0033",
  "linkReferences": {},
  "deployedLinkReferences": {}
}