{
  "_format": "hh-sol-artifact-1",
  "contractName": "EvolutionClock",
  "sourceName": "contracts/EvolutionClock.sol",
  "abi": [
    {
      "inputs": [
        {
          "internalType": "address",
          "name": "_genOps",
          "type": "address"
        },
        {
          "internalType": "uint256",
          "name": "_epochLength",
          "type": "uint256"
        }
      ],
      "stateMutability": "nonpayable",
      "type": "constructor"
    },
    {
      "anonymous": false,
      "inputs": [
        {
          "indexed": false,
          "internalType": "uint256",
          "name": "newLength",
          "type": "uint256"
        }
      ],
      "name": "EpochLengthUpdated",
      "type": "event"
    },
    {
      "anonymous": false,
      "inputs": [
        {
          "indexed": true,
          "internalType": "uint256",
          "name": "generation",
          "type": "uint256"
        },
        {
          "indexed": false,
          "internalType": "uint256",
          "name": "blockNumber",
          "type": "uint256"
        },
        {
          "indexed": false,
          "internalType": "address",
          "name": "triggeredBy",
          "type": "address"
        }
      ],
      "name": "EpochTriggered",
      "type": "event"
    },
    {
      "anonymous": false,
      "inputs": [
        {
          "indexed": false,
          "internalType": "address",
          "name": "newGenOps",
          "type": "address"
        }
      ],
      "name": "GenOpsUpdated",
      "type": "event"
    },
    {
      "anonymous": false,
      "inputs": [
        {
          "indexed": false,
          "internalType": "bool",
          "name": "isPaused",
          "type": "bool"
        }
      ],
      "name": "Paused",
      "type": "event"
    },
    {
      "inputs": [],
      "name": "blocksUntilNextEpoch",
      "outputs": [
        {
          "internalType": "uint256",
          "name": "",
          "type": "uint256"
        }
      ],
      "stateMutability": "view",
      "type": "function"
    },
    {
      "inputs": [],
      "name": "currentGeneration",
      "outputs": [
        {
          "internalType": "uint256",
          "name": "",
          "type": "uint256"
        }
      ],
      "stateMutability": "view",
      "type": "function"
    },
    {
      "inputs": [],
      "name": "epochLength",
      "outputs": [
        {
          "internalType": "uint256",
          "name": "",
          "type": "uint256"
        }
      ],
      "stateMutability": "view",
      "type": "function"
    },
    {
      "inputs": [],
      "name": "genOps",
      "outputs": [
        {
          "internalType": "address",
          "name": "",
          "type": "address"
        }
      ],
      "stateMutability": "view",
      "type": "function"
    },
    {
      "inputs": [],
      "name": "getGeneration",
      "outputs": [
        {
          "internalType": "uint256",
          "name": "",
          "type": "uint256"
        }
      ],
      "stateMutability": "view",
      "type": "function"
    },
    {
      "inputs": [],
      "name": "isEpochReady",
      "outputs": [
        {
          "internalType": "bool",
          "name": "",
          "type": "bool"
        }
      ],
      "stateMutability": "view",
      "type": "function"
    },
    {
      "inputs": [],
      "name": "lastEpochBlock",
      "outputs": [
        {
          "internalType": "uint256",
          "name": "",
          "type": "uint256"
        }
      ],
      "stateMutability": "view",
      "type": "function"
    },
    {
      "inputs": [],
      "name": "owner",
      "outputs": [
        {
          "internalType": "address",
          "name": "",
          "type": "address"
        }
      ],
      "stateMutability": "view",
      "type": "function"
    },
    {
      "inputs": [],
      "name": "paused",
      "outputs": [
        {
          "internalType": "bool",
          "name": "",
          "type": "bool"
        }
      ],
      "stateMutability": "view",
      "type": "function"
    },
    {
      "inputs": [
        {
          "internalType": "uint256",
          "name": "_newLength",
          "type": "uint256"
        }
      ],
      "name": "setEpochLength",
      "outputs": [],
      "stateMutability": "nonpayable",
      "type": "function"
    },
    {
      "inputs": [
        {
          "internalType": "address",
          "name": "_genOps",
          "type": "address"
        }
      ],
      "name": "setGenOps",
      "outputs": [],
      "stateMutability": "nonpayable",
      "type": "function"
    },
    {
      "inputs": [
        {
          "internalType": "bool",
          "name": "_paused",
          "type": "bool"
        }
      ],
      "name": "setPaused",
      "outputs": [],
      "stateMutability": "nonpayable",
      "type": "function"
    },
    {
      "inputs": [],
      "name": "triggerEpoch",
      "outputs": [],
      "stateMutability": "nonpayable",
      "type": "function"
    }
  ],
  "bytecode": "0x60803461010357601f6106f638819003918201601f19168301916001600160401b038311848410176101075780849260409485528339810103126101035780516001600160a01b038116919082900361010357602001519080156100d05781156100985760018060a01b03195f5416175f55600255436003553360018060a01b031960015416176001556040516105da908161011c8239f35b60405162461bcd60e51b815260206004820152601060248201526f0f4cae4de40cae0dec6d098cadccee8d60831b6044820152606490fd5b60405162461bcd60e51b815260206004820152600b60248201526a7a65726f2067656e4f707360a81b6044820152606490fd5b5f80fd5b634e487b7160e01b5f52604160045260245ffdfe60806040526004361015610011575f80fd5b5f5f3560e01c80630bd8339a1461049357806316c38b3c146104245780634f3d90b1146103df57806354eea7961461034c57806357d775f81461032f5780635c975abb1461030d578063694db4e3146102c85780638da5cb5b146102e55780638ddb428a146102c857806390e6dfbe14610137578063c2362dd514610119578063ed5bb4fd146100f25763f17e713d146100a9575f80fd5b346100ef57806003193601126100ef5760ff6005541615806100d3575b6020906040519015158152f35b5060206100e560035460025490610597565b43101590506100c6565b80fd5b50346100ef57806003193601126100ef57546040516001600160a01b039091168152602090f35b50346100ef57806003193601126100ef576020600354604051908152f35b5034610222575f3660031901126102225760ff6005541661028a5761016160035460025490610597565b431061023a57436003556004545f1981146102265760010180600455807f8b972e8bcf68e99e581dfeacacdcb91f363e8bccdea143b3c4465a07209e0ce560408051438152336020820152a25f546001600160a01b031690813b15610222575f91602483926040519485938492633921701360e21b845260048401525af18015610217576101ed575080f35b905067ffffffffffffffff811161020357604052005b634e487b7160e01b5f52604160045260245ffd5b6040513d5f823e3d90fd5b5f80fd5b634e487b7160e01b5f52601160045260245ffd5b60405162461bcd60e51b815260206004820152602260248201527f45766f6c7574696f6e436c6f636b3a2065706f6368206e6f74206f7665722079604482015261195d60f21b6064820152608490fd5b60405162461bcd60e51b8152602060048201526016602482015275115d9bdb1d5d1a5bdb90db1bd8dace881c185d5cd95960521b6044820152606490fd5b34610222575f366003190112610222576020600454604051908152f35b34610222575f366003190112610222576001546040516001600160a01b039091168152602090f35b34610222575f36600319011261022257602060ff600554166040519015158152f35b34610222575f366003190112610222576020600254604051908152f35b346102225760203660031901126102225760043561037560018060a01b0360015416331461054b565b80156103ac576020817f2664fec2ff76486ac58ed087310855b648b15b9d19f3de8529e95f7c46b7d6b392600255604051908152a1005b60405162461bcd60e51b815260206004820152600b60248201526a0f4cae4de40d8cadccee8d60ab1b6044820152606490fd5b34610222575f366003190112610222576103fe60035460025490610597565b438111610412575060205f5b604051908152f35b4381039081116102265760209061040a565b34610222576020366003190112610222576004358015158091036102225760207f0e2fb031ee032dc02d8011dc50b816eb450cf856abd8261680dac74f72165bd29161047b60018060a01b0360015416331461054b565b60ff196005541660ff821617600555604051908152a1005b34610222576020366003190112610222576004356001600160a01b03811690819003610222576104ce60018060a01b0360015416331461054b565b8015610518576020817faed7c2a89c874e697bbb1b8a47c085507f8bd0ebada31c8c84add45cda2280a8926bffffffffffffffffffffffff60a01b5f5416175f55604051908152a1005b60405162461bcd60e51b815260206004820152600b60248201526a7a65726f2067656e4f707360a81b6044820152606490fd5b1561055257565b60405162461bcd60e51b815260206004820152601960248201527f45766f6c7574696f6e436c6f636b3a206e6f74206f776e6572000000000000006044820152606490fd5b919082018092116102265756fea2646970667358221220b635007569478d8d33c2f6c0f0e0a9ab0cb993167b3cb46910b46f415f9b118c64736f6c634300081c0033",
  "linkReferences": {},
  "deployedLinkReferences": {}
}