{
  "_format": "hh-sol-artifact-1",
  "contractName": "TEEVerifierBridge",
  "sourceName": "contracts/TEEVerifierBridge.sol",
  "abi": [
    {
      "inputs": [
        {
          "internalType": "address",
          "name": "_escrow",
          "type": "address"
        },
        {
          "internalType": "address",
          "name": "_agentReg",
          "type": "address"
        },
        {
          "internalType": "address",
          "name": "_dagReg",
          "type": "address"
        },
        {
          "internalType": "address",
          "name": "_signer",
          "type": "address"
        },
        {
          "internalType": "bytes32",
          "name": "_mrEnclave",
          "type": "bytes32"
        }
      ],
      "stateMutability": "nonpayable",
      "type": "constructor"
    },
    {
      "anonymous": false,
      "inputs": [
        {
          "indexed": false,
          "internalType": "bytes32",
          "name": "newMrEnclave",
          "type": "bytes32"
        }
      ],
      "name": "EnclaveUpdated",
      "type": "event"
    },
    {
      "anonymous": false,
      "inputs": [
        {
          "indexed": false,
          "internalType": "uint8",
          "name": "newMin",
          "type": "uint8"
        }
      ],
      "name": "MinQualityUpdated",
      "type": "event"
    },
    {
      "anonymous": false,
      "inputs": [
        {
          "indexed": false,
          "internalType": "address",
          "name": "newSigner",
          "type": "address"
        }
      ],
      "name": "SignerUpdated",
      "type": "event"
    },
    {
      "anonymous": false,
      "inputs": [
        {
          "indexed": true,
          "internalType": "bytes32",
          "name": "taskId",
          "type": "bytes32"
        },
        {
          "indexed": true,
          "internalType": "address",
          "name": "agent",
          "type": "address"
        },
        {
          "indexed": false,
          "internalType": "bool",
          "name": "passed",
          "type": "bool"
        },
        {
          "indexed": false,
          "internalType": "uint8",
          "name": "score",
          "type": "uint8"
        }
      ],
      "name": "VerificationSubmitted",
      "type": "event"
    },
    {
      "inputs": [],
      "name": "MIN_QUALITY",
      "outputs": [
        {
          "internalType": "uint8",
          "name": "",
          "type": "uint8"
        }
      ],
      "stateMutability": "view",
      "type": "function"
    },
    {
      "inputs": [],
      "name": "agentReg",
      "outputs": [
        {
          "internalType": "contract IAgentRegistry",
          "name": "",
          "type": "address"
        }
      ],
      "stateMutability": "view",
      "type": "function"
    },
    {
      "inputs": [],
      "name": "dagReg",
      "outputs": [
        {
          "internalType": "contract IDAGRegistry",
          "name": "",
          "type": "address"
        }
      ],
      "stateMutability": "view",
      "type": "function"
    },
    {
      "inputs": [],
      "name": "escrow",
      "outputs": [
        {
          "internalType": "contract IMeshEscrow",
          "name": "",
          "type": "address"
        }
      ],
      "stateMutability": "view",
      "type": "function"
    },
    {
      "inputs": [
        {
          "internalType": "bytes32",
          "name": "taskId",
          "type": "bytes32"
        }
      ],
      "name": "isProcessed",
      "outputs": [
        {
          "internalType": "bool",
          "name": "",
          "type": "bool"
        }
      ],
      "stateMutability": "view",
      "type": "function"
    },
    {
      "inputs": [],
      "name": "owner",
      "outputs": [
        {
          "internalType": "address",
          "name": "",
          "type": "address"
        }
      ],
      "stateMutability": "view",
      "type": "function"
    },
    {
      "inputs": [
        {
          "internalType": "bytes32",
          "name": "",
          "type": "bytes32"
        }
      ],
      "name": "processed",
      "outputs": [
        {
          "internalType": "bool",
          "name": "",
          "type": "bool"
        }
      ],
      "stateMutability": "view",
      "type": "function"
    },
    {
      "inputs": [
        {
          "internalType": "uint8",
          "name": "_min",
          "type": "uint8"
        }
      ],
      "name": "setMinQuality",
      "outputs": [],
      "stateMutability": "nonpayable",
      "type": "function"
    },
    {
      "inputs": [
        {
          "internalType": "bytes32",
          "name": "taskId",
          "type": "bytes32"
        },
        {
          "internalType": "address",
          "name": "assignedAgent",
          "type": "address"
        },
        {
          "internalType": "bool",
          "name": "passed",
          "type": "bool"
        },
        {
          "internalType": "uint8",
          "name": "score",
          "type": "uint8"
        },
        {
          "internalType": "bytes",
          "name": "teeSignature",
          "type": "bytes"
        }
      ],
      "name": "submitVerification",
      "outputs": [],
      "stateMutability": "nonpayable",
      "type": "function"
    },
    {
      "inputs": [],
      "name": "trustedMrEnclave",
      "outputs": [
        {
          "internalType": "bytes32",
          "name": "",
          "type": "bytes32"
        }
      ],
      "stateMutability": "view",
      "type": "function"
    },
    {
      "inputs": [],
      "name": "trustedVerifierSigner",
      "outputs": [
        {
          "internalType": "address",
          "name": "",
          "type": "address"
        }
      ],
      "stateMutability": "view",
      "type": "function"
    },
    {
      "inputs": [
        {
          "internalType": "bytes32",
          "name": "_newEnclave",
          "type": "bytes32"
        }
      ],
      "name": "updateMrEnclave",
      "outputs": [],
      "stateMutability": "nonpayable",
      "type": "function"
    },
    {
      "inputs": [
        {
          "internalType": "address",
          "name": "_newSigner",
          "type": "address"
        }
      ],
      "name": "updateSigner",
      "outputs": [],
      "stateMutability": "nonpayable",
      "type": "function"
    }
  ],
  "bytecode": "0x6080346101eb57601f610b5938819003918201601f19168301916001600160401b038311848410176101ef5780849260a0946040528339810103126101eb5761004781610203565b9061005460208201610203565b61006060408301610203565b91608061006f60608301610203565b9101516005549490936001600160a01b039091169283156101b8576001600160a01b0316908115610183576001600160a01b0316918215610150576001600160a01b031692831561011d575f80546001600160a01b03199081169290921790556001805482169290921790915560028054821692909217909155600380549091169190911790556004556001600160a81b0319163317602360a11b1760055560405161094190816102188239f35b60405162461bcd60e51b815260206004820152600b60248201526a3d32b9379039b4b3b732b960a91b6044820152606490fd5b60405162461bcd60e51b815260206004820152600b60248201526a7a65726f2064616752656760a81b6044820152606490fd5b60405162461bcd60e51b815260206004820152600d60248201526c7a65726f206167656e7452656760981b6044820152606490fd5b60405162461bcd60e51b815260206004820152600b60248201526a7a65726f20657363726f7760a81b6044820152606490fd5b5f80fd5b634e487b7160e01b5f52604160045260245ffd5b51906001600160a01b03821682036101eb5756fe6080806040526004361015610012575f80fd5b5f905f3560e01c908163031dc5621461086d5750806311c16896146106425780633842f9591461085057806359ef58e9146107cf57806389fbdf2f146107765780638da5cb5b1461074e578063a7ecd37e14610694578063b54403ce14610671578063c1f0808a14610642578063d668fea61461061a578063e2fdcc17146105f3578063f82dbb37146105cb5763fdc421bb146100ad575f80fd5b346104315760a0366003190112610431576024356001600160a01b03811690600435908290036104315760443580151592838203610431576064359160ff8316928381036104315760843567ffffffffffffffff811161043157366023820112156104315780600401359167ffffffffffffffff831161043157366024848401011161043157865f52600660205260ff60405f205416610586578415610541576041906004546040519060208201928a84528b60f81b604084015260ff60f81b9060f81b168483015260428201526042815261018a6062826108d5565b51902060405160208101917f19457468657265756d205369676e6564204d6573736167653a0a3332000000008352603c820152603c81526101cc605c826108d5565b51902092036104fc5760648101355f1a601b81106104dc575b60ff1690601b821480156104d2575b156104985760209260446080925f9460405193845286840152602481013560408401520135606082015282805260015afa15610426575f516003546001600160a01b039081169116036104475781847f86b7851e29c296d1f3262f249810691c40f24dec8fd17176cb91186d9b41aecc60408998835f526006602052815f20600160ff198254161790558151908152876020820152a380610435575b156103d35783546001600160a01b0316803b156103aa57848091604460405180948193631bbdcfd360e01b83528960048401528760248401525af19081156103c85785916103ae575b50506001546001600160a01b031691823b156103aa5760448592836040519586948593631200b65b60e01b8552600485015260248401525af190811561039f578391610387575b50506002546001600160a01b031690813b15610383578291602483926040519485938492634153691760e01b845260048401525af180156103785761036457505080f35b8161036e916108d5565b6103755780f35b80fd5b6040513d84823e3d90fd5b5050fd5b81610391916108d5565b61039c57815f610320565b50fd5b6040513d85823e3d90fd5b8480fd5b816103b8916108d5565b6103c357835f6102d9565b505050fd5b6040513d87823e3d90fd5b6001546001600160a01b03169350915050813b15610431575f9160248392604051948593849263c96be4cb60e01b845260048401525af1801561042657610418575080f35b61042491505f906108d5565b005b6040513d5f823e3d90fd5b5f80fd5b5060ff60055460a01c16821015610290565b60405162461bcd60e51b8152602060048201526024808201527f54454556657269666965723a20696e76616c69642054454520617474657374616044820152633a34b7b760e11b6064820152608490fd5b60405162461bcd60e51b81526020600482015260126024820152712a22a2ab32b934b334b2b91d103130b2103b60711b6044820152606490fd5b50601c82146101f4565b601b0160ff8111156101e557634e487b7160e01b5f52601160045260245ffd5b60405162461bcd60e51b815260206004820152601b60248201527f54454556657269666965723a2062616420736967206c656e67746800000000006044820152606490fd5b60405162461bcd60e51b815260206004820152601760248201527f54454556657269666965723a207a65726f206167656e740000000000000000006044820152606490fd5b60405162461bcd60e51b815260206004820152601e60248201527f54454556657269666965723a20616c72656164792070726f63657373656400006044820152606490fd5b34610431575f366003190112610431576001546040516001600160a01b039091168152602090f35b34610431575f366003190112610431575f546040516001600160a01b039091168152602090f35b34610431575f366003190112610431576003546040516001600160a01b039091168152602090f35b34610431576020366003190112610431576004355f526006602052602060ff60405f2054166040519015158152f35b34610431575f36600319011261043157602060ff60055460a01c16604051908152f35b34610431576020366003190112610431576004356001600160a01b03811690819003610431576106cf60018060a01b03600554163314610890565b801561071b576020817f5553331329228fbd4123164423717a4a7539f6dfa1c3279a923b98fd681a6c73926bffffffffffffffffffffffff60a01b6003541617600355604051908152a1005b60405162461bcd60e51b815260206004820152600b60248201526a3d32b9379039b4b3b732b960a91b6044820152606490fd5b34610431575f366003190112610431576005546040516001600160a01b039091168152602090f35b34610431576020366003190112610431577f29eee120c0751af1e476bc3a9ee980ae7906e4afda08b3e097baab7eb5b1b4c960206004356107c260018060a01b03600554163314610890565b80600455604051908152a1005b346104315760203660031901126104315760043560ff811690818103610431576005547fc006f7bd00a801a9bf2d46504eef5b01666490b76e28fb088884f6809f4a287b9260209290919061082e336001600160a01b03841614610890565b60ff60a01b1990911660a09190911b60ff60a01b1617600555604051908152a1005b34610431575f366003190112610431576020600454604051908152f35b34610431575f366003190112610431576002546001600160a01b03168152602090f35b1561089757565b60405162461bcd60e51b81526020600482015260166024820152752a22a2ab32b934b334b2b91d103737ba1037bbb732b960511b6044820152606490fd5b90601f8019910116810190811067ffffffffffffffff8211176108f757604052565b634e487b7160e01b5f52604160045260245ffdfea26469706673582212201f4c61a07c81cef7c7fc6a716d56f168e3a93cf8cd7c9f1bb6b449a63b107f2664736f6c634300081c0033",
  "linkReferences": {},
  "deployedLinkReferences": {}
}