{
  "_format": "hh-sol-artifact-1",
  "contractName": "RevenueRouter",
  "sourceName": "contracts/RevenueRouter.sol",
  "abi": [
    {
      "inputs": [
        {
          "internalType": "address",
          "name": "_treasury",
          "type": "address"
        },
        {
          "internalType": "uint256",
          "name": "_agentShare",
          "type": "uint256"
        },
        {
          "internalType": "uint256",
          "name": "_stakerShare",
          "type": "uint256"
        },
        {
          "internalType": "uint256",
          "name": "_treasuryShare",
          "type": "uint256"
        }
      ],
      "stateMutability": "nonpayable",
      "type": "constructor"
    },
    {
      "anonymous": false,
      "inputs": [
        {
          "indexed": true,
          "internalType": "address",
          "name": "agent",
          "type": "address"
        },
        {
          "indexed": false,
          "internalType": "uint256",
          "name": "agentAmount",
          "type": "uint256"
        },
        {
          "indexed": false,
          "internalType": "uint256",
          "name": "stakerAmount",
          "type": "uint256"
        },
        {
          "indexed": false,
          "internalType": "uint256",
          "name": "treasuryAmount",
          "type": "uint256"
        }
      ],
      "name": "RevenueRouted",
      "type": "event"
    },
    {
      "anonymous": false,
      "inputs": [
        {
          "indexed": false,
          "internalType": "uint256",
          "name": "agentShare",
          "type": "uint256"
        },
        {
          "indexed": false,
          "internalType": "uint256",
          "name": "stakerShare",
          "type": "uint256"
        },
        {
          "indexed": false,
          "internalType": "uint256",
          "name": "treasuryShare",
          "type": "uint256"
        }
      ],
      "name": "SharesUpdated",
      "type": "event"
    },
    {
      "anonymous": false,
      "inputs": [
        {
          "indexed": true,
          "internalType": "address",
          "name": "agent",
          "type": "address"
        },
        {
          "indexed": false,
          "internalType": "uint256",
          "name": "amount",
          "type": "uint256"
        }
      ],
      "name": "StakerRewardClaimed",
      "type": "event"
    },
    {
      "inputs": [],
      "name": "agentShare",
      "outputs": [
        {
          "internalType": "uint256",
          "name": "",
          "type": "uint256"
        }
      ],
      "stateMutability": "view",
      "type": "function"
    },
    {
      "inputs": [
        {
          "internalType": "address",
          "name": "agent",
          "type": "address"
        }
      ],
      "name": "claimStakerReward",
      "outputs": [],
      "stateMutability": "nonpayable",
      "type": "function"
    },
    {
      "inputs": [
        {
          "internalType": "address",
          "name": "agent",
          "type": "address"
        }
      ],
      "name": "getPendingReward",
      "outputs": [
        {
          "internalType": "uint256",
          "name": "",
          "type": "uint256"
        }
      ],
      "stateMutability": "view",
      "type": "function"
    },
    {
      "inputs": [],
      "name": "meshEscrow",
      "outputs": [
        {
          "internalType": "address",
          "name": "",
          "type": "address"
        }
      ],
      "stateMutability": "view",
      "type": "function"
    },
    {
      "inputs": [],
      "name": "owner",
      "outputs": [
        {
          "internalType": "address",
          "name": "",
          "type": "address"
        }
      ],
      "stateMutability": "view",
      "type": "function"
    },
    {
      "inputs": [
        {
          "internalType": "address",
          "name": "",
          "type": "address"
        }
      ],
      "name": "pendingStakerRewards",
      "outputs": [
        {
          "internalType": "uint256",
          "name": "",
          "type": "uint256"
        }
      ],
      "stateMutability": "view",
      "type": "function"
    },
    {
      "inputs": [
        {
          "internalType": "address",
          "name": "agent",
          "type": "address"
        }
      ],
      "name": "route",
      "outputs": [],
      "stateMutability": "payable",
      "type": "function"
    },
    {
      "inputs": [
        {
          "internalType": "address",
          "name": "_meshEscrow",
          "type": "address"
        }
      ],
      "name": "setMeshEscrow",
      "outputs": [],
      "stateMutability": "nonpayable",
      "type": "function"
    },
    {
      "inputs": [],
      "name": "stakerShare",
      "outputs": [
        {
          "internalType": "uint256",
          "name": "",
          "type": "uint256"
        }
      ],
      "stateMutability": "view",
      "type": "function"
    },
    {
      "inputs": [
        {
          "internalType": "address",
          "name": "",
          "type": "address"
        }
      ],
      "name": "totalRouted",
      "outputs": [
        {
          "internalType": "uint256",
          "name": "",
          "type": "uint256"
        }
      ],
      "stateMutability": "view",
      "type": "function"
    },
    {
      "inputs": [],
      "name": "treasury",
      "outputs": [
        {
          "internalType": "address",
          "name": "",
          "type": "address"
        }
      ],
      "stateMutability": "view",
      "type": "function"
    },
    {
      "inputs": [],
      "name": "treasuryShare",
      "outputs": [
        {
          "internalType": "uint256",
          "name": "",
          "type": "uint256"
        }
      ],
      "stateMutability": "view",
      "type": "function"
    },
    {
      "inputs": [
        {
          "internalType": "uint256",
          "name": "_agentShare",
          "type": "uint256"
        },
        {
          "internalType": "uint256",
          "name": "_stakerShare",
          "type": "uint256"
        },
        {
          "internalType": "uint256",
          "name": "_treasuryShare",
          "type": "uint256"
        }
      ],
      "name": "updateShares",
      "outputs": [],
      "stateMutability": "nonpayable",
      "type": "function"
    },
    {
      "inputs": [
        {
          "internalType": "address",
          "name": "_treasury",
          "type": "address"
        }
      ],
      "name": "updateTreasury",
      "outputs": [],
      "stateMutability": "nonpayable",
      "type": "function"
    },
    {
      "stateMutability": "payable",
      "type": "receive"
    }
  ],
  "bytecode": "0x60803461014557601f61096f38819003918201601f19168301916001600160401b03831184841017610149578084926080946040528339810103126101455780516001600160a01b0381169190829003610145576020810151606060408301519201519280156101105761271061007f8561007a868661015d565b61015d565b036100bb5760018060a01b03195f5416175f556003556004556005553360018060a01b031960025416176002556040516107f0908161017f8239f35b60405162461bcd60e51b815260206004820152602760248201527f526576656e7565526f757465723a20736861726573206d7573742073756d207460448201526606f2031303030360cc1b6064820152608490fd5b60405162461bcd60e51b815260206004820152600d60248201526c7a65726f20747265617375727960981b6044820152606490fd5b5f80fd5b634e487b7160e01b5f52604160045260245ffd5b9190820180921161016a57565b634e487b7160e01b5f52601160045260245ffdfe608080604052600436101561001c575b50361561001a575f80fd5b005b5f3560e01c90816307e9caea1461052b57508063208e59661461040e5780634a717602146103d25780634df9d6ba146103d257806351f4a71d146103965780635af720791461037957806361d027b314610352578063690bd890146102c25780637796ff37146102a55780637f51bb1f146102155780638da5cb5b146101ed578063cb61b42d1461010b578063cef15834146100ee5763f53a0101146100c2575f61000f565b346100ea575f3660031901126100ea576001546040516001600160a01b039091168152602090f35b5f80fd5b346100ea575f3660031901126100ea576020600354604051908152f35b346100ea5760603660031901126100ea576004356024356044359161013b60018060a01b0360025416331461076e565b6127106101518461014c8585610761565b610761565b036101a9576101a47ff81b1f9d8b5d36a5a67d13006a8b091a9b63e2a38b331d315d99c6daefd2ddcc93826003558360045580600555604051938493846040919493926060820195825260208201520152565b0390a1005b606460405162461bcd60e51b815260206004820152602060248201527f526576656e7565526f757465723a206d7573742073756d20746f2031303030306044820152fd5b346100ea575f3660031901126100ea576002546040516001600160a01b039091168152602090f35b346100ea5760203660031901126100ea576004356001600160a01b038116908190036100ea5761025060018060a01b0360025416331461076e565b8015610270576bffffffffffffffffffffffff60a01b5f5416175f555f80f35b60405162461bcd60e51b815260206004820152600d60248201526c7a65726f20747265617375727960981b6044820152606490fd5b346100ea575f3660031901126100ea576020600554604051908152f35b346100ea5760203660031901126100ea576004356001600160a01b038116908190036100ea576102fd60018060a01b0360025416331461076e565b801561031f576bffffffffffffffffffffffff60a01b60015416176001555f80f35b60405162461bcd60e51b815260206004820152600b60248201526a7a65726f20657363726f7760a81b6044820152606490fd5b346100ea575f3660031901126100ea575f546040516001600160a01b039091168152602090f35b346100ea575f3660031901126100ea576020600454604051908152f35b346100ea5760203660031901126100ea576004356001600160a01b038116908190036100ea575f526007602052602060405f2054604051908152f35b346100ea5760203660031901126100ea576004356001600160a01b038116908190036100ea575f526006602052602060405f2054604051908152f35b346100ea5760203660031901126100ea576004356001600160a01b038116908190036100ea578033036104e657805f52600660205260405f205480156104a157815f5260066020525f60408120555f808080848682f1156104965760207fef73aec5301dd8636100b12076f0670ddd9b578d4bac2a5b25ebcb5fa092bead91604051908152a2005b6040513d5f823e3d90fd5b60405162461bcd60e51b815260206004820152601f60248201527f526576656e7565526f757465723a206e6f7468696e6720746f20636c61696d006044820152606490fd5b60405162461bcd60e51b815260206004820152601960248201527f526576656e7565526f757465723a206f6e6c79206167656e74000000000000006044820152606490fd5b60203660031901126100ea576004356001600160a01b03811691908290036100ea576001546001600160a01b031633036106eb575080156106a65734156106615761271061057b6003543461072d565b0461271061058b6004543461072d565b0461059f8161059a8434610754565b610754565b915f81858115610657575b5f92839283928392f11561049657835f52600660205260405f206105cf838254610761565b90555f8080808660018060a01b0382541682821561064e575bf115610496576106497f4285fe49a166230cb2e0e351b600bb32c0b760ea3b9c6f5f622c031d72d9e57993855f52600760205260405f2061062a348254610761565b9055604051938493846040919493926060820195825260208201520152565b0390a2005b506108fc6105e8565b6108fc92506105aa565b60405162461bcd60e51b815260206004820152601960248201527f526576656e7565526f757465723a207a65726f2076616c7565000000000000006044820152606490fd5b60405162461bcd60e51b815260206004820152601960248201527f526576656e7565526f757465723a207a65726f206167656e74000000000000006044820152606490fd5b62461bcd60e51b815260206004820152601e60248201527f526576656e7565526f757465723a206f6e6c79204d657368457363726f7700006044820152606490fd5b8181029291811591840414171561074057565b634e487b7160e01b5f52601160045260245ffd5b9190820391821161074057565b9190820180921161074057565b1561077557565b60405162461bcd60e51b815260206004820152601860248201527f526576656e7565526f757465723a206e6f74206f776e657200000000000000006044820152606490fdfea26469706673582212201406d63d6e7284af941ecbc5c9873475eb2ef41e5df85642d54db83c31cb865364736f6c634300081c0033",
  "linkReferences": {},
  "deployedLinkReferences": {}
}